
*******************************************************************
* PostgreSQL File/Block Formatted Dump Utility
*
* File: /var/lib/postgresql/16/main/base/397661/2674
* Options used: -i -f
*******************************************************************

Block    0 ********************************************************
<Header> -----
 Block Offset: 0x00000000         Offsets: Lower      72 (0x0048)
 Block: Size 8192  Version    4            Upper    8176 (0x1ff0)
 LSN:  logid      2 recoff 0x2c563400      Special  8176 (0x1ff0)
 Items:   12                      Free Space: 8104
 Checksum: 0x0000  Prune XID: 0x00000000  Flags: 0x0000 ()
 Length (including item array): 72

 BTree Meta Data:  Magic (0x00053162)   Version (4)
                   Root:     Block (3)  Level (1)
                   FastRoot: Block (3)  Level (1)

  0000: 02000000 0034562c 00000000 4800f01f  .....4V,....H...
  0010: f01f0420 00000000 62310500 04000000  ... ....b1......
  0020: 03000000 01000000 03000000 01000000  ................
  0030: 00000000 00000000 00000000 0000f0bf  ................
  0040: 01000000 00000000 00000000 00000000  ................
  0050: 00000000 00000000 00000000 00000000  ................
  0060: 00000000 00000000 00000000 00000000  ................
  0070: 00000000 00000000                    ........        

<Special Section> -----
 BTree Index Section:
  Flags: 0x0008 (META)
  Blocks: Previous (0)  Next (0)  Level (0)  CycleId (0)

  1ff0: 00000000 00000000 00000000 08000000  ................


Block    1 ********************************************************
<Header> -----
 Block Offset: 0x00002000         Offsets: Lower     432 (0x01b0)
 Block: Size 8192  Version    4            Upper    1440 (0x05a0)
 LSN:  logid      2 recoff 0x2c565060      Special  8176 (0x1ff0)
 Items:  102                      Free Space: 1008
 Checksum: 0x0000  Prune XID: 0x00000000  Flags: 0x0000 ()
 Length (including item array): 432

  0000: 02000000 6050562c 00000000 b001a005  ....`PV,........
  0010: f01f0420 00000000 e09f2000 c89f3000  ... ...... ...0.
  0020: b09f3000 989f3000 809f3000 689f3000  ..0...0...0.h.0.
  0030: 509f3000 389f3000 209f3000 089f3000  P.0.8.0. .0...0.
  0040: f09e3000 d89e3000 c09e3000 a89e3000  ..0...0...0...0.
  0050: 909e3000 789e3000 609e3000 489e3000  ..0.x.0.`.0.H.0.
  0060: 309e3000 189e3000 009e3000 e89d3000  0.0...0...0...0.
  0070: d09d3000 b89d3000 a09d3000 889d3000  ..0...0...0...0.
  0080: 709d3000 589d3000 409d3000 289d3000  p.0.X.0.@.0.(.0.
  0090: 109d3000 f89c3000 e09c3000 c89c3000  ..0...0...0...0.
  00a0: b09c3000 989c3000 809c3000 689c3000  ..0...0...0.h.0.
  00b0: 509c3000 389c3000 209c3000 089c3000  P.0.8.0. .0...0.
  00c0: f09b3000 d89b3000 c09b3000 a89b3000  ..0...0...0...0.
  00d0: 909b3000 789b3000 609b3000 489b3000  ..0.x.0.`.0.H.0.
  00e0: 309b3000 189b3000 009b3000 e89a3000  0.0...0...0...0.
  00f0: d09a3000 b89a3000 a09a3000 889a3000  ..0...0...0...0.
  0100: 709a3000 589a3000 409a3000 289a3000  p.0.X.0.@.0.(.0.
  0110: 109a3000 f8993000 e0993000 c8993000  ..0...0...0...0.
  0120: b0993000 98993000 80993000 68993000  ..0...0...0.h.0.
  0130: 50993000 38993000 20993000 08993000  P.0.8.0. .0...0.
  0140: f0983000 d8983000 c0983000 98965004  ..0...0...0...P.
  0150: 4893a006 18863000 e8853000 008e900a  H.....0...0.....
  0160: b888900a 80877002 68873000 50873000  ......p.h.0.P.0.
  0170: 38873000 20873000 08873000 f0863000  8.0. .0...0...0.
  0180: d8863000 c0863000 a8863000 90863000  ..0...0...0...0.
  0190: 78863000 60863000 48863000 30863000  x.0.`.0.H.0.0.0.
  01a0: 00863000 d0853000 b8853000 a0853000  ..0...0...0...0.

<Data> -----
 Item   1 -- Length:   16  Offset: 8160 (0x1fe0)  Flags: NORMAL
  Block Id: 3  linp Index: 2  Size: 16
  Has Nulls: 0  Has Varwidths: 0

  1fe0: 00000300 02001020 df040000 9d330000  ....... .....3..

 Item   2 -- Length:   24  Offset: 8136 (0x1fc8)  Flags: NORMAL
  Block Id: 0  linp Index: 2  Size: 24
  Has Nulls: 0  Has Varwidths: 0

  1fc8: 00000000 02001800 df040000 e22e0000  ................
  1fd8: 00000000 00000000                    ........        

 Item   3 -- Length:   24  Offset: 8112 (0x1fb0)  Flags: NORMAL
  Block Id: 0  linp Index: 5  Size: 24
  Has Nulls: 0  Has Varwidths: 0

  1fb0: 00000000 05001800 df040000 e72e0000  ................
  1fc0: 00000000 00000000                    ........        

 Item   4 -- Length:   24  Offset: 8088 (0x1f98)  Flags: NORMAL
  Block Id: 0  linp Index: 8  Size: 24
  Has Nulls: 0  Has Varwidths: 0

  1f98: 00000000 08001800 df040000 ec2e0000  ................
  1fa8: 00000000 00000000                    ........        

 Item   5 -- Length:   24  Offset: 8064 (0x1f80)  Flags: NORMAL
  Block Id: 0  linp Index: 11  Size: 24
  Has Nulls: 0  Has Varwidths: 0

  1f80: 00000000 0b001800 df040000 f02e0000  ................
  1f90: 00000000 00000000                    ........        

 Item   6 -- Length:   24  Offset: 8040 (0x1f68)  Flags: NORMAL
  Block Id: 0  linp Index: 22  Size: 24
  Has Nulls: 0  Has Varwidths: 0

  1f68: 00000000 16001800 df040000 f42e0000  ................
  1f78: 00000000 00000000                    ........        

 Item   7 -- Length:   24  Offset: 8016 (0x1f50)  Flags: NORMAL
  Block Id: 0  linp Index: 25  Size: 24
  Has Nulls: 0  Has Varwidths: 0

  1f50: 00000000 19001800 df040000 f92e0000  ................
  1f60: 00000000 00000000                    ........        

 Item   8 -- Length:   24  Offset: 7992 (0x1f38)  Flags: NORMAL
  Block Id: 0  linp Index: 28  Size: 24
  Has Nulls: 0  Has Varwidths: 0

  1f38: 00000000 1c001800 df040000 fe2e0000  ................
  1f48: 00000000 00000000                    ........        

 Item   9 -- Length:   24  Offset: 7968 (0x1f20)  Flags: NORMAL
  Block Id: 0  linp Index: 31  Size: 24
  Has Nulls: 0  Has Varwidths: 0

  1f20: 00000000 1f001800 df040000 032f0000  ............./..
  1f30: 00000000 00000000                    ........        

 Item  10 -- Length:   24  Offset: 7944 (0x1f08)  Flags: NORMAL
  Block Id: 0  linp Index: 34  Size: 24
  Has Nulls: 0  Has Varwidths: 0

  1f08: 00000000 22001800 df040000 082f0000  ...."......../..
  1f18: 00000000 00000000                    ........        

 Item  11 -- Length:   24  Offset: 7920 (0x1ef0)  Flags: NORMAL
  Block Id: 0  linp Index: 37  Size: 24
  Has Nulls: 0  Has Varwidths: 0

  1ef0: 00000000 25001800 df040000 0d2f0000  ....%......../..
  1f00: 00000000 00000000                    ........        

 Item  12 -- Length:   24  Offset: 7896 (0x1ed8)  Flags: NORMAL
  Block Id: 0  linp Index: 40  Size: 24
  Has Nulls: 0  Has Varwidths: 0

  1ed8: 00000000 28001800 df040000 122f0000  ....(......../..
  1ee8: 00000000 00000000                    ........        

 Item  13 -- Length:   24  Offset: 7872 (0x1ec0)  Flags: NORMAL
  Block Id: 0  linp Index: 43  Size: 24
  Has Nulls: 0  Has Varwidths: 0

  1ec0: 00000000 2b001800 df040000 172f0000  ....+......../..
  1ed0: 00000000 00000000                    ........        

 Item  14 -- Length:   24  Offset: 7848 (0x1ea8)  Flags: NORMAL
  Block Id: 0  linp Index: 46  Size: 24
  Has Nulls: 0  Has Varwidths: 0

  1ea8: 00000000 2e001800 df040000 1c2f0000  ............./..
  1eb8: 00000000 00000000                    ........        

 Item  15 -- Length:   24  Offset: 7824 (0x1e90)  Flags: NORMAL
  Block Id: 0  linp Index: 49  Size: 24
  Has Nulls: 0  Has Varwidths: 0

  1e90: 00000000 31001800 df040000 212f0000  ....1.......!/..
  1ea0: 00000000 00000000                    ........        

 Item  16 -- Length:   24  Offset: 7800 (0x1e78)  Flags: NORMAL
  Block Id: 0  linp Index: 52  Size: 24
  Has Nulls: 0  Has Varwidths: 0

  1e78: 00000000 34001800 df040000 262f0000  ....4.......&/..
  1e88: 00000000 00000000                    ........        

 Item  17 -- Length:   24  Offset: 7776 (0x1e60)  Flags: NORMAL
  Block Id: 0  linp Index: 55  Size: 24
  Has Nulls: 0  Has Varwidths: 0

  1e60: 00000000 37001800 df040000 2b2f0000  ....7.......+/..
  1e70: 00000000 00000000                    ........        

 Item  18 -- Length:   24  Offset: 7752 (0x1e48)  Flags: NORMAL
  Block Id: 0  linp Index: 58  Size: 24
  Has Nulls: 0  Has Varwidths: 0

  1e48: 00000000 3a001800 df040000 2f2f0000  ....:.......//..
  1e58: 00000000 00000000                    ........        

 Item  19 -- Length:   24  Offset: 7728 (0x1e30)  Flags: NORMAL
  Block Id: 0  linp Index: 61  Size: 24
  Has Nulls: 0  Has Varwidths: 0

  1e30: 00000000 3d001800 df040000 332f0000  ....=.......3/..
  1e40: 00000000 00000000                    ........        

 Item  20 -- Length:   24  Offset: 7704 (0x1e18)  Flags: NORMAL
  Block Id: 0  linp Index: 64  Size: 24
  Has Nulls: 0  Has Varwidths: 0

  1e18: 00000000 40001800 df040000 372f0000  ....@.......7/..
  1e28: 00000000 00000000                    ........        

 Item  21 -- Length:   24  Offset: 7680 (0x1e00)  Flags: NORMAL
  Block Id: 0  linp Index: 67  Size: 24
  Has Nulls: 0  Has Varwidths: 0

  1e00: 00000000 43001800 df040000 3c2f0000  ....C.......</..
  1e10: 00000000 00000000                    ........        

 Item  22 -- Length:   24  Offset: 7656 (0x1de8)  Flags: NORMAL
  Block Id: 0  linp Index: 70  Size: 24
  Has Nulls: 0  Has Varwidths: 0

  1de8: 00000000 46001800 df040000 412f0000  ....F.......A/..
  1df8: 00000000 00000000                    ........        

 Item  23 -- Length:   24  Offset: 7632 (0x1dd0)  Flags: NORMAL
  Block Id: 0  linp Index: 73  Size: 24
  Has Nulls: 0  Has Varwidths: 0

  1dd0: 00000000 49001800 df040000 452f0000  ....I.......E/..
  1de0: 00000000 00000000                    ........        

 Item  24 -- Length:   24  Offset: 7608 (0x1db8)  Flags: NORMAL
  Block Id: 0  linp Index: 76  Size: 24
  Has Nulls: 0  Has Varwidths: 0

  1db8: 00000000 4c001800 df040000 4a2f0000  ....L.......J/..
  1dc8: 00000000 00000000                    ........        

 Item  25 -- Length:   24  Offset: 7584 (0x1da0)  Flags: NORMAL
  Block Id: 0  linp Index: 85  Size: 24
  Has Nulls: 0  Has Varwidths: 0

  1da0: 00000000 55001800 df040000 502f0000  ....U.......P/..
  1db0: 00000000 00000000                    ........        

 Item  26 -- Length:   24  Offset: 7560 (0x1d88)  Flags: NORMAL
  Block Id: 0  linp Index: 88  Size: 24
  Has Nulls: 0  Has Varwidths: 0

  1d88: 00000000 58001800 df040000 542f0000  ....X.......T/..
  1d98: 00000000 00000000                    ........        

 Item  27 -- Length:   24  Offset: 7536 (0x1d70)  Flags: NORMAL
  Block Id: 0  linp Index: 91  Size: 24
  Has Nulls: 0  Has Varwidths: 0

  1d70: 00000000 5b001800 df040000 582f0000  ....[.......X/..
  1d80: 00000000 00000000                    ........        

 Item  28 -- Length:   24  Offset: 7512 (0x1d58)  Flags: NORMAL
  Block Id: 0  linp Index: 94  Size: 24
  Has Nulls: 0  Has Varwidths: 0

  1d58: 00000000 5e001800 df040000 5c2f0000  ....^.......\/..
  1d68: 00000000 00000000                    ........        

 Item  29 -- Length:   24  Offset: 7488 (0x1d40)  Flags: NORMAL
  Block Id: 0  linp Index: 97  Size: 24
  Has Nulls: 0  Has Varwidths: 0

  1d40: 00000000 61001800 df040000 602f0000  ....a.......`/..
  1d50: 00000000 00000000                    ........        

 Item  30 -- Length:   24  Offset: 7464 (0x1d28)  Flags: NORMAL
  Block Id: 0  linp Index: 100  Size: 24
  Has Nulls: 0  Has Varwidths: 0

  1d28: 00000000 64001800 df040000 642f0000  ....d.......d/..
  1d38: 00000000 00000000                    ........        

 Item  31 -- Length:   24  Offset: 7440 (0x1d10)  Flags: NORMAL
  Block Id: 0  linp Index: 103  Size: 24
  Has Nulls: 0  Has Varwidths: 0

  1d10: 00000000 67001800 df040000 682f0000  ....g.......h/..
  1d20: 00000000 00000000                    ........        

 Item  32 -- Length:   24  Offset: 7416 (0x1cf8)  Flags: NORMAL
  Block Id: 0  linp Index: 106  Size: 24
  Has Nulls: 0  Has Varwidths: 0

  1cf8: 00000000 6a001800 df040000 6c2f0000  ....j.......l/..
  1d08: 00000000 00000000                    ........        

 Item  33 -- Length:   24  Offset: 7392 (0x1ce0)  Flags: NORMAL
  Block Id: 0  linp Index: 109  Size: 24
  Has Nulls: 0  Has Varwidths: 0

  1ce0: 00000000 6d001800 df040000 702f0000  ....m.......p/..
  1cf0: 00000000 00000000                    ........        

 Item  34 -- Length:   24  Offset: 7368 (0x1cc8)  Flags: NORMAL
  Block Id: 0  linp Index: 112  Size: 24
  Has Nulls: 0  Has Varwidths: 0

  1cc8: 00000000 70001800 df040000 752f0000  ....p.......u/..
  1cd8: 00000000 00000000                    ........        

 Item  35 -- Length:   24  Offset: 7344 (0x1cb0)  Flags: NORMAL
  Block Id: 0  linp Index: 115  Size: 24
  Has Nulls: 0  Has Varwidths: 0

  1cb0: 00000000 73001800 df040000 7a2f0000  ....s.......z/..
  1cc0: 00000000 00000000                    ........        

 Item  36 -- Length:   24  Offset: 7320 (0x1c98)  Flags: NORMAL
  Block Id: 1  linp Index: 8  Size: 24
  Has Nulls: 0  Has Varwidths: 0

  1c98: 00000100 08001800 df040000 7f2f0000  ............./..
  1ca8: 00000000 00000000                    ........        

 Item  37 -- Length:   24  Offset: 7296 (0x1c80)  Flags: NORMAL
  Block Id: 1  linp Index: 23  Size: 24
  Has Nulls: 0  Has Varwidths: 0

  1c80: 00000100 17001800 df040000 832f0000  ............./..
  1c90: 00000000 00000000                    ........        

 Item  38 -- Length:   24  Offset: 7272 (0x1c68)  Flags: NORMAL
  Block Id: 1  linp Index: 52  Size: 24
  Has Nulls: 0  Has Varwidths: 0

  1c68: 00000100 34001800 df040000 882f0000  ....4......../..
  1c78: 00000000 00000000                    ........        

 Item  39 -- Length:   24  Offset: 7248 (0x1c50)  Flags: NORMAL
  Block Id: 1  linp Index: 67  Size: 24
  Has Nulls: 0  Has Varwidths: 0

  1c50: 00000100 43001800 df040000 8c2f0000  ....C......../..
  1c60: 00000000 00000000                    ........        

 Item  40 -- Length:   24  Offset: 7224 (0x1c38)  Flags: NORMAL
  Block Id: 1  linp Index: 70  Size: 24
  Has Nulls: 0  Has Varwidths: 0

  1c38: 00000100 46001800 df040000 912f0000  ....F......../..
  1c48: 00000000 00000000                    ........        

 Item  41 -- Length:   24  Offset: 7200 (0x1c20)  Flags: NORMAL
  Block Id: 1  linp Index: 84  Size: 24
  Has Nulls: 0  Has Varwidths: 0

  1c20: 00000100 54001800 df040000 952f0000  ....T......../..
  1c30: 00000000 00000000                    ........        

 Item  42 -- Length:   24  Offset: 7176 (0x1c08)  Flags: NORMAL
  Block Id: 1  linp Index: 98  Size: 24
  Has Nulls: 0  Has Varwidths: 0

  1c08: 00000100 62001800 df040000 992f0000  ....b......../..
  1c18: 00000000 00000000                    ........        

 Item  43 -- Length:   24  Offset: 7152 (0x1bf0)  Flags: NORMAL
  Block Id: 1  linp Index: 101  Size: 24
  Has Nulls: 0  Has Varwidths: 0

  1bf0: 00000100 65001800 df040000 9e2f0000  ....e......../..
  1c00: 00000000 00000000                    ........        

 Item  44 -- Length:   24  Offset: 7128 (0x1bd8)  Flags: NORMAL
  Block Id: 1  linp Index: 113  Size: 24
  Has Nulls: 0  Has Varwidths: 0

  1bd8: 00000100 71001800 df040000 a22f0000  ....q......../..
  1be8: 00000000 00000000                    ........        

 Item  45 -- Length:   24  Offset: 7104 (0x1bc0)  Flags: NORMAL
  Block Id: 1  linp Index: 125  Size: 24
  Has Nulls: 0  Has Varwidths: 0

  1bc0: 00000100 7d001800 df040000 a62f0000  ....}......../..
  1bd0: 00000000 00000000                    ........        

 Item  46 -- Length:   24  Offset: 7080 (0x1ba8)  Flags: NORMAL
  Block Id: 1  linp Index: 128  Size: 24
  Has Nulls: 0  Has Varwidths: 0

  1ba8: 00000100 80001800 df040000 ab2f0000  ............./..
  1bb8: 00000000 00000000                    ........        

 Item  47 -- Length:   24  Offset: 7056 (0x1b90)  Flags: NORMAL
  Block Id: 2  linp Index: 2  Size: 24
  Has Nulls: 0  Has Varwidths: 0

  1b90: 00000200 02001800 df040000 af2f0000  ............./..
  1ba0: 00000000 00000000                    ........        

 Item  48 -- Length:   24  Offset: 7032 (0x1b78)  Flags: NORMAL
  Block Id: 2  linp Index: 12  Size: 24
  Has Nulls: 0  Has Varwidths: 0

  1b78: 00000200 0c001800 df040000 b32f0000  ............./..
  1b88: 00000000 00000000                    ........        

 Item  49 -- Length:   24  Offset: 7008 (0x1b60)  Flags: NORMAL
  Block Id: 2  linp Index: 15  Size: 24
  Has Nulls: 0  Has Varwidths: 0

  1b60: 00000200 0f001800 df040000 b82f0000  ............./..
  1b70: 00000000 00000000                    ........        

 Item  50 -- Length:   24  Offset: 6984 (0x1b48)  Flags: NORMAL
  Block Id: 2  linp Index: 23  Size: 24
  Has Nulls: 0  Has Varwidths: 0

  1b48: 00000200 17001800 df040000 bc2f0000  ............./..
  1b58: 00000000 00000000                    ........        

 Item  51 -- Length:   24  Offset: 6960 (0x1b30)  Flags: NORMAL
  Block Id: 2  linp Index: 31  Size: 24
  Has Nulls: 0  Has Varwidths: 0

  1b30: 00000200 1f001800 df040000 c02f0000  ............./..
  1b40: 00000000 00000000                    ........        

 Item  52 -- Length:   24  Offset: 6936 (0x1b18)  Flags: NORMAL
  Block Id: 2  linp Index: 34  Size: 24
  Has Nulls: 0  Has Varwidths: 0

  1b18: 00000200 22001800 df040000 c52f0000  ...."......../..
  1b28: 00000000 00000000                    ........        

 Item  53 -- Length:   24  Offset: 6912 (0x1b00)  Flags: NORMAL
  Block Id: 2  linp Index: 37  Size: 24
  Has Nulls: 0  Has Varwidths: 0

  1b00: 00000200 25001800 df040000 ca2f0000  ....%......../..
  1b10: 00000000 00000000                    ........        

 Item  54 -- Length:   24  Offset: 6888 (0x1ae8)  Flags: NORMAL
  Block Id: 2  linp Index: 40  Size: 24
  Has Nulls: 0  Has Varwidths: 0

  1ae8: 00000200 28001800 df040000 ce2f0000  ....(......../..
  1af8: 00000000 00000000                    ........        

 Item  55 -- Length:   24  Offset: 6864 (0x1ad0)  Flags: NORMAL
  Block Id: 2  linp Index: 43  Size: 24
  Has Nulls: 0  Has Varwidths: 0

  1ad0: 00000200 2b001800 df040000 d22f0000  ....+......../..
  1ae0: 00000000 00000000                    ........        

 Item  56 -- Length:   24  Offset: 6840 (0x1ab8)  Flags: NORMAL
  Block Id: 2  linp Index: 46  Size: 24
  Has Nulls: 0  Has Varwidths: 0

  1ab8: 00000200 2e001800 df040000 d62f0000  ............./..
  1ac8: 00000000 00000000                    ........        

 Item  57 -- Length:   24  Offset: 6816 (0x1aa0)  Flags: NORMAL
  Block Id: 2  linp Index: 49  Size: 24
  Has Nulls: 0  Has Varwidths: 0

  1aa0: 00000200 31001800 df040000 db2f0000  ....1......../..
  1ab0: 00000000 00000000                    ........        

 Item  58 -- Length:   24  Offset: 6792 (0x1a88)  Flags: NORMAL
  Block Id: 2  linp Index: 52  Size: 24
  Has Nulls: 0  Has Varwidths: 0

  1a88: 00000200 34001800 df040000 df2f0000  ....4......../..
  1a98: 00000000 00000000                    ........        

 Item  59 -- Length:   24  Offset: 6768 (0x1a70)  Flags: NORMAL
  Block Id: 2  linp Index: 55  Size: 24
  Has Nulls: 0  Has Varwidths: 0

  1a70: 00000200 37001800 df040000 e32f0000  ....7......../..
  1a80: 00000000 00000000                    ........        

 Item  60 -- Length:   24  Offset: 6744 (0x1a58)  Flags: NORMAL
  Block Id: 2  linp Index: 58  Size: 24
  Has Nulls: 0  Has Varwidths: 0

  1a58: 00000200 3a001800 df040000 e82f0000  ....:......../..
  1a68: 00000000 00000000                    ........        

 Item  61 -- Length:   24  Offset: 6720 (0x1a40)  Flags: NORMAL
  Block Id: 2  linp Index: 63  Size: 24
  Has Nulls: 0  Has Varwidths: 0

  1a40: 00000200 3f001800 df040000 ec2f0000  ....?......../..
  1a50: 00000000 00000000                    ........        

 Item  62 -- Length:   24  Offset: 6696 (0x1a28)  Flags: NORMAL
  Block Id: 2  linp Index: 66  Size: 24
  Has Nulls: 0  Has Varwidths: 0

  1a28: 00000200 42001800 df040000 f12f0000  ....B......../..
  1a38: 00000000 00000000                    ........        

 Item  63 -- Length:   24  Offset: 6672 (0x1a10)  Flags: NORMAL
  Block Id: 2  linp Index: 69  Size: 24
  Has Nulls: 0  Has Varwidths: 0

  1a10: 00000200 45001800 df040000 f52f0000  ....E......../..
  1a20: 00000000 00000000                    ........        

 Item  64 -- Length:   24  Offset: 6648 (0x19f8)  Flags: NORMAL
  Block Id: 2  linp Index: 72  Size: 24
  Has Nulls: 0  Has Varwidths: 0

  19f8: 00000200 48001800 df040000 fa2f0000  ....H......../..
  1a08: 00000000 00000000                    ........        

 Item  65 -- Length:   24  Offset: 6624 (0x19e0)  Flags: NORMAL
  Block Id: 2  linp Index: 75  Size: 24
  Has Nulls: 0  Has Varwidths: 0

  19e0: 00000200 4b001800 df040000 ff2f0000  ....K......../..
  19f0: 00000000 00000000                    ........        

 Item  66 -- Length:   24  Offset: 6600 (0x19c8)  Flags: NORMAL
  Block Id: 2  linp Index: 78  Size: 24
  Has Nulls: 0  Has Varwidths: 0

  19c8: 00000200 4e001800 df040000 03300000  ....N........0..
  19d8: 00000000 00000000                    ........        

 Item  67 -- Length:   24  Offset: 6576 (0x19b0)  Flags: NORMAL
  Block Id: 2  linp Index: 81  Size: 24
  Has Nulls: 0  Has Varwidths: 0

  19b0: 00000200 51001800 df040000 07300000  ....Q........0..
  19c0: 00000000 00000000                    ........        

 Item  68 -- Length:   24  Offset: 6552 (0x1998)  Flags: NORMAL
  Block Id: 2  linp Index: 84  Size: 24
  Has Nulls: 0  Has Varwidths: 0

  1998: 00000200 54001800 df040000 0b300000  ....T........0..
  19a8: 00000000 00000000                    ........        

 Item  69 -- Length:   24  Offset: 6528 (0x1980)  Flags: NORMAL
  Block Id: 2  linp Index: 87  Size: 24
  Has Nulls: 0  Has Varwidths: 0

  1980: 00000200 57001800 df040000 0f300000  ....W........0..
  1990: 00000000 00000000                    ........        

 Item  70 -- Length:   24  Offset: 6504 (0x1968)  Flags: NORMAL
  Block Id: 2  linp Index: 90  Size: 24
  Has Nulls: 0  Has Varwidths: 0

  1968: 00000200 5a001800 df040000 14300000  ....Z........0..
  1978: 00000000 00000000                    ........        

 Item  71 -- Length:   24  Offset: 6480 (0x1950)  Flags: NORMAL
  Block Id: 2  linp Index: 93  Size: 24
  Has Nulls: 0  Has Varwidths: 0

  1950: 00000200 5d001800 df040000 19300000  ....]........0..
  1960: 00000000 00000000                    ........        

 Item  72 -- Length:   24  Offset: 6456 (0x1938)  Flags: NORMAL
  Block Id: 2  linp Index: 96  Size: 24
  Has Nulls: 0  Has Varwidths: 0

  1938: 00000200 60001800 df040000 1e300000  ....`........0..
  1948: 00000000 00000000                    ........        

 Item  73 -- Length:   24  Offset: 6432 (0x1920)  Flags: NORMAL
  Block Id: 2  linp Index: 99  Size: 24
  Has Nulls: 0  Has Varwidths: 0

  1920: 00000200 63001800 df040000 23300000  ....c.......#0..
  1930: 00000000 00000000                    ........        

 Item  74 -- Length:   24  Offset: 6408 (0x1908)  Flags: NORMAL
  Block Id: 2  linp Index: 102  Size: 24
  Has Nulls: 0  Has Varwidths: 0

  1908: 00000200 66001800 df040000 28300000  ....f.......(0..
  1918: 00000000 00000000                    ........        

 Item  75 -- Length:   24  Offset: 6384 (0x18f0)  Flags: NORMAL
  Block Id: 2  linp Index: 105  Size: 24
  Has Nulls: 0  Has Varwidths: 0

  18f0: 00000200 69001800 df040000 2d300000  ....i.......-0..
  1900: 00000000 00000000                    ........        

 Item  76 -- Length:   24  Offset: 6360 (0x18d8)  Flags: NORMAL
  Block Id: 2  linp Index: 108  Size: 24
  Has Nulls: 0  Has Varwidths: 0

  18d8: 00000200 6c001800 df040000 32300000  ....l.......20..
  18e8: 00000000 00000000                    ........        

 Item  77 -- Length:   24  Offset: 6336 (0x18c0)  Flags: NORMAL
  Block Id: 2  linp Index: 111  Size: 24
  Has Nulls: 0  Has Varwidths: 0

  18c0: 00000200 6f001800 df040000 36300000  ....o.......60..
  18d0: 00000000 00000000                    ........        

 Item  78 -- Length:  552  Offset: 5784 (0x1698)  Flags: NORMAL
  Block Id: 24  linp Index: 8280  Size: 552
  Has Nulls: 0  Has Varwidths: 0

  1698: 00001800 58202822 df040000 95330000  ....X (".....3..
  16a8: 00000000 00000000 00000300 47000000  ............G...
  16b8: 03004800 00000300 71000000 03007500  ..H.....q.....u.
  16c8: 00000300 76000000 03007d00 00000300  ....v.....}.....
  16d8: 7e000000 03007f00 00000300 80000000  ~...............
  16e8: 03008200 00000400 01000000 04000900  ................
  16f8: 00000400 81000000 04008500 00000400  ................
  1708: 86000000 04008700 00000400 88000000  ................
  1718: 05000100 00000500 02000000 05000400  ................
  1728: 00000500 14000000 05002600 00000500  ..........&.....
  1738: 66000000 05006700 00000500 6e000000  f.....g.....n...
  1748: 05006f00 00000500 70000000 05007100  ..o.....p.....q.
  1758: 00000500 73000000 05007b00 00000500  ....s.....{.....
  1768: 81000000 06001000 00000600 11000000  ................
  1778: 06001500 00000600 1d000000 06002300  ..............#.
  1788: 00000600 24000000 06002b00 00000600  ....$.....+.....
  1798: 2c000000 06002d00 00000600 2e000000  ,.....-.........
  17a8: 06003000 00000600 37000000 06003f00  ..0.....7.....?.
  17b8: 00000700 4f000000 07005000 00000700  ....O.....P.....
  17c8: 57000000 07005800 00000700 59000000  W.....X.....Y...
  17d8: 07005a00 00000700 5c000000 07006300  ..Z.....\.....c.
  17e8: 00000700 6f000000 07007d00 00000700  ....o.....}.....
  17f8: 7e000000 07008500 00000700 86000000  ~...............
  1808: 07008700 00000700 88000000 08000200  ................
  1818: 00000800 09000000 08001100 00000800  ................
  1828: 25000000 08002600 00000800 27000000  %.....&.....'...
  1838: 08003200 00000800 45000000 08005900  ..2.....E.....Y.
  1848: 00000800 5b000000 09004700 00000900  ....[.....G.....
  1858: 56000000 0a002500 00000a00 26000000  V.....%.....&...
  1868: 0a002d00 00000a00 2e000000 0a002f00  ..-.........../.
  1878: 00000a00 30000000 0a003200 00000a00  ....0.....2.....
  1888: 3a000000 0b000800 00000b00 09000000  :...............
  1898: 0b001000 00000b00 11000000 0b001200  ................
  18a8: 00000b00 13000000 0b001500 00000b00  ................
  18b8: 1d000000 0b002700                    ......'.        

 Item  79 -- Length:  848  Offset: 4936 (0x1348)  Flags: NORMAL
  Block Id: 24  linp Index: 8329  Size: 848
  Has Nulls: 0  Has Varwidths: 0

  1348: 00001800 89205023 df040000 98330000  ..... P#.....3..
  1358: 00000000 00000000 00000300 4a000000  ............J...
  1368: 03007200 00000300 74000000 03008100  ..r.....t.......
  1378: 00000400 08000000 04003000 00000400  ..........0.....
  1388: 34000000 04003a00 00000400 3e000000  4.....:.....>...
  1398: 04006800 00000400 6e000000 04008200  ..h.....n.......
  13a8: 00000400 84000000 05000300 00000500  ................
  13b8: 18000000 05001900 00000500 1a000000  ................
  13c8: 05001b00 00000500 1c000000 05001e00  ................
  13d8: 00000500 1f000000 05002500 00000500  ..........%.....
  13e8: 65000000 05007200 00000500 74000000  e.....r.....t...
  13f8: 05008000 00000600 1e000000 06002200  ..............".
  1408: 00000600 2f000000 06003900 00000600  ..../.....9.....
  1418: 3e000000 06004900 00000600 4a000000  >.....I.....J...
  1428: 06004b00 00000600 4f000000 06005800  ..K.....O.....X.
  1438: 00000600 7f000000 06008500 00000700  ................
  1448: 08000000 07004700 00000700 4e000000  ......G.....N...
  1458: 07005b00 00000700 65000000 07006600  ..[.....e.....f.
  1468: 00000700 67000000 07006800 00000700  ....g.....h.....
  1478: 69000000 07006b00 00000700 6d000000  i.....k.....m...
  1488: 07007200 00000700 7b000000 08000100  ..r.....{.......
  1498: 00000800 10000000 08001a00 00000800  ................
  14a8: 1e000000 08002400 00000800 28000000  ......$.....(...
  14b8: 08002900 00000800 2a000000 08002b00  ..).....*.....+.
  14c8: 00000800 31000000 08003600 00000800  ....1.....6.....
  14d8: 37000000 08003800 00000800 39000000  7.....8.....9...
  14e8: 08003b00 00000800 3c000000 08004300  ..;.....<.....C.
  14f8: 00000800 44000000 08004600 00000800  ....D.....F.....
  1508: 47000000 08004e00 00000800 4f000000  G.....N.....O...
  1518: 08005100 00000800 52000000 08005a00  ..Q.....R.....Z.
  1528: 00000800 5c000000 08006900 00000800  ....\.....i.....
  1538: 72000000 08007a00 00000800 81000000  r.....z.........
  1548: 09000100 00000900 15000000 09001700  ................
  1558: 00000900 1d000000 09002200 00000900  ..........".....
  1568: 2c000000 09003000 00000900 43000000  ,.....0.....C...
  1578: 09004800 00000900 49000000 09004a00  ..H.....I.....J.
  1588: 00000900 4b000000 09005500 00000900  ....K.....U.....
  1598: 5e000000 09006400 00000900 6c000000  ^.....d.....l...
  15a8: 09008000 00000900 81000000 09008700  ................
  15b8: 00000a00 07000000 0a000800 00000a00  ................
  15c8: 1b000000 0a001e00 00000a00 1f000000  ................
  15d8: 0a002300 00000a00 24000000 0a003100  ..#.....$.....1.
  15e8: 00000a00 39000000 0a006200 00000a00  ....9.....b.....
  15f8: 63000000 0a006d00 00000a00 73000000  c.....m.....s...
  1608: 0a008700 00000b00 05000000 0b000700  ................
  1618: 00000b00 14000000 0b001600 00000b00  ................
  1628: 26000000 0b003400 00000b00 3c000000  &.....4.....<...
  1638: 0b004200 00000b00 46000000 0b004c00  ..B.....F.....L.
  1648: 00000b00 53000000 0b005900 00000b00  ....S.....Y.....
  1658: 5a000000 0b006100 00000b00 68000000  Z.....a.....h...
  1668: 0b006900 00000b00 6e000000 0b007400  ..i.....n.....t.
  1678: 00000b00 7b000000 0b008200 00000b00  ....{...........
  1688: 83000000 0c001700 00000c00 1f000000  ................

 Item  80 -- Length:   24  Offset: 1560 (0x0618)  Flags: NORMAL
  Block Id: 12  linp Index: 65  Size: 24
  Has Nulls: 0  Has Varwidths: 0

  0618: 00000c00 41001800 df040000 98330000  ....A........3..
  0628: 00000000 00000000                    ........        

 Item  81 -- Length:   24  Offset: 1512 (0x05e8)  Flags: NORMAL
  Block Id: 12  linp Index: 75  Size: 24
  Has Nulls: 0  Has Varwidths: 0

  05e8: 00000c00 4b001800 df040000 98330000  ....K........3..
  05f8: 00000000 00000000                    ........        

 Item  82 -- Length: 1352  Offset: 3584 (0x0e00)  Flags: NORMAL
  Block Id: 24  linp Index: 8413  Size: 1352
  Has Nulls: 0  Has Varwidths: 0

  0e00: 00001800 dd204825 df040000 9a330000  ..... H%.....3..
  0e10: 00000000 00000000 00000300 4c000000  ............L...
  0e20: 03004f00 00000300 52000000 03005a00  ..O.....R.....Z.
  0e30: 00000300 5b000000 03006000 00000300  ....[.....`.....
  0e40: 63000000 03006400 00000300 6d000000  c.....d.....m...
  0e50: 03006e00 00000300 6f000000 03007000  ..n.....o.....p.
  0e60: 00000300 77000000 03007800 00000300  ....w.....x.....
  0e70: 79000000 03007a00 00000300 7b000000  y.....z.....{...
  0e80: 03007c00 00000300 83000000 03008400  ..|.............
  0e90: 00000300 85000000 03008600 00000300  ................
  0ea0: 87000000 03008800 00000400 02000000  ................
  0eb0: 04000700 00000400 15000000 04001600  ................
  0ec0: 00000400 17000000 04001800 00000400  ................
  0ed0: 19000000 04001a00 00000400 1b000000  ................
  0ee0: 04001c00 00000400 1f000000 04002200  ..............".
  0ef0: 00000400 23000000 04002400 00000400  ....#.....$.....
  0f00: 25000000 04002600 00000400 27000000  %.....&.....'...
  0f10: 04002a00 00000400 2d000000 04002e00  ..*.....-.......
  0f20: 00000400 2f000000 04003300 00000400  ..../.....3.....
  0f30: 37000000 04003800 00000400 39000000  7.....8.....9...
  0f40: 04003d00 00000400 41000000 04004200  ..=.....A.....B.
  0f50: 00000400 43000000 04004400 00000400  ....C.....D.....
  0f60: 45000000 04004600 00000400 49000000  E.....F.....I...
  0f70: 04004c00 00000400 4d000000 04004e00  ..L.....M.....N.
  0f80: 00000400 4f000000 04005000 00000400  ....O.....P.....
  0f90: 53000000 04005600 00000400 57000000  S.....V.....W...
  0fa0: 04005800 00000400 59000000 04005a00  ..X.....Y.....Z.
  0fb0: 00000400 5b000000 04005c00 00000400  ....[.....\.....
  0fc0: 5f000000 04006200 00000400 63000000  _.....b.....c...
  0fd0: 04006400 00000400 65000000 04006600  ..d.....e.....f.
  0fe0: 00000400 67000000 04006d00 00000400  ....g.....m.....
  0ff0: 71000000 04007200 00000400 73000000  q.....r.....s...
  1000: 04007400 00000400 75000000 04007600  ..t.....u.....v.
  1010: 00000400 77000000 04007a00 00000400  ....w.....z.....
  1020: 7d000000 04007e00 00000400 7f000000  }.....~.........
  1030: 04008000 00000500 05000000 05000600  ................
  1040: 00000500 07000000 05000800 00000500  ................
  1050: 09000000 05000a00 00000500 0b000000  ................
  1060: 05000c00 00000500 0d000000 05000e00  ................
  1070: 00000500 0f000000 05001000 00000500  ................
  1080: 11000000 05001200 00000500 13000000  ................
  1090: 05001500 00000500 24000000 05003200  ........$.....2.
  10a0: 00000500 33000000 05003400 00000500  ....3.....4.....
  10b0: 35000000 05003600 00000500 37000000  5.....6.....7...
  10c0: 05003800 00000500 3b000000 05003e00  ..8.....;.....>.
  10d0: 00000500 3f000000 05004000 00000500  ....?.....@.....
  10e0: 41000000 05004200 00000500 43000000  A.....B.....C...
  10f0: 05004600 00000500 49000000 05004a00  ..F.....I.....J.
  1100: 00000500 4b000000 05004c00 00000500  ....K.....L.....
  1110: 4d000000 05004e00 00000500 54000000  M.....N.....T...
  1120: 05005700 00000500 58000000 05005900  ..W.....X.....Y.
  1130: 00000500 5a000000 05005b00 00000500  ....Z.....[.....
  1140: 5c000000 05005f00 00000500 62000000  \....._.....b...
  1150: 05006300 00000500 64000000 05006800  ..c.....d.....h.
  1160: 00000500 69000000 05006a00 00000500  ....i.....j.....
  1170: 6b000000 05006c00 00000500 6d000000  k.....l.....m...
  1180: 05007500 00000500 76000000 05007700  ..u.....v.....w.
  1190: 00000500 78000000 05007900 00000500  ....x.....y.....
  11a0: 7a000000 05007c00 00000500 7f000000  z.....|.........
  11b0: 06000300 00000600 06000000 06000900  ................
  11c0: 00000600 0a000000 06000b00 00000600  ................
  11d0: 0c000000 06000d00 00000600 0e000000  ................
  11e0: 06000f00 00000600 14000000 06001a00  ................
  11f0: 00000600 1b000000 06001c00 00000600  ................
  1200: 21000000 06002500 00000600 26000000  !.....%.....&...
  1210: 06002700 00000600 28000000 06002900  ..'.....(.....).
  1220: 00000600 2a000000 06003100 00000600  ....*.....1.....
  1230: 32000000 06003300 00000600 34000000  2.....3.....4...
  1240: 06003500 00000600 36000000 06003800  ..5.....6.....8.
  1250: 00000600 3d000000 06004300 00000600  ....=.....C.....
  1260: 44000000 06004500 00000600 46000000  D.....E.....F...
  1270: 06004700 00000600 48000000 06004e00  ..G.....H.....N.
  1280: 00000600 52000000 06005300 00000600  ....R.....S.....
  1290: 54000000 06005500 00000600 56000000  T.....U.....V...
  12a0: 06005700 00000600 65000000 06006800  ..W.....e.....h.
  12b0: 00000600 69000000 06006a00 00000600  ....i.....j.....
  12c0: 6b000000 06006c00 00000600 6d000000  k.....l.....m...
  12d0: 06006e00 00000600 6f000000 06007000  ..n.....o.....p.
  12e0: 00000600 71000000 06007400 00000600  ....q.....t.....
  12f0: 77000000 06007800 00000600 79000000  w.....x.....y...
  1300: 06007a00 00000600 7b000000 06007c00  ..z.....{.....|.
  1310: 00000600 7d000000 06007e00 00000600  ....}.....~.....
  1320: 84000000 06008800 00000700 01000000  ................
  1330: 07000200 00000700 03000000 07000400  ................
  1340: 00000700 05000000                    ........        

 Item  83 -- Length: 1352  Offset: 2232 (0x08b8)  Flags: NORMAL
  Block Id: 24  linp Index: 8413  Size: 1352
  Has Nulls: 0  Has Varwidths: 0

  08b8: 00001800 dd204825 df040000 9a330000  ..... H%.....3..
  08c8: 00000000 00000000 00000700 06000000  ................
  08d8: 07000700 00000700 17000000 07001a00  ................
  08e8: 00000700 1b000000 07001c00 00000700  ................
  08f8: 1d000000 07001e00 00000700 1f000000  ................
  0908: 07002200 00000700 25000000 07002600  ..".....%.....&.
  0918: 00000700 27000000 07002800 00000700  ....'.....(.....
  0928: 29000000 07002a00 00000700 2b000000  ).....*.....+...
  0938: 07002c00 00000700 2d000000 07003000  ..,.....-.....0.
  0948: 00000700 33000000 07003400 00000700  ....3.....4.....
  0958: 35000000 07003600 00000700 37000000  5.....6.....7...
  0968: 07003800 00000700 39000000 07003a00  ..8.....9.....:.
  0978: 00000700 3b000000 07003e00 00000700  ....;.....>.....
  0988: 41000000 07004200 00000700 43000000  A.....B.....C...
  0998: 07004400 00000700 45000000 07004600  ..D.....E.....F.
  09a8: 00000700 48000000 07004900 00000700  ....H.....I.....
  09b8: 4a000000 07004b00 00000700 4c000000  J.....K.....L...
  09c8: 07004d00 00000700 51000000 07005200  ..M.....Q.....R.
  09d8: 00000700 53000000 07005400 00000700  ....S.....T.....
  09e8: 55000000 07005600 00000700 5d000000  U.....V.....]...
  09f8: 07005e00 00000700 5f000000 07006000  ..^....._.....`.
  0a08: 00000700 61000000 07006200 00000700  ....a.....b.....
  0a18: 64000000 07007300 00000700 74000000  d.....s.....t...
  0a28: 07007500 00000700 7f000000 07008000  ..u.............
  0a38: 00000700 81000000 07008200 00000700  ................
  0a48: 83000000 07008400 00000800 03000000  ................
  0a58: 08000400 00000800 05000000 08000600  ................
  0a68: 00000800 07000000 08000800 00000800  ................
  0a78: 0a000000 08000f00 00000800 14000000  ................
  0a88: 08001500 00000800 16000000 08001700  ................
  0a98: 00000800 18000000 08001900 00000800  ................
  0aa8: 1d000000 08002100 00000800 22000000  ......!....."...
  0ab8: 08002300 00000800 30000000 08006300  ..#.....0.....c.
  0ac8: 00000800 64000000 08006500 00000800  ....d.....e.....
  0ad8: 66000000 08006700 00000800 68000000  f.....g.....h...
  0ae8: 08007100 00000800 75000000 08007600  ..q.....u.....v.
  0af8: 00000800 77000000 08007800 00000800  ....w.....x.....
  0b08: 79000000 08008000 00000800 84000000  y...............
  0b18: 08008500 00000800 86000000 08008700  ................
  0b28: 00000800 88000000 09000f00 00000900  ................
  0b38: 12000000 09001300 00000900 14000000  ................
  0b48: 09001600 00000900 18000000 09001900  ................
  0b58: 00000900 1a000000 09002100 00000900  ..........!.....
  0b68: 25000000 09002600 00000900 27000000  %.....&.....'...
  0b78: 09002800 00000900 29000000 09002a00  ..(.....).....*.
  0b88: 00000900 2b000000 09002f00 00000900  ....+...../.....
  0b98: 33000000 09003400 00000900 35000000  3.....4.....5...
  0ba8: 09003600 00000900 37000000 09003800  ..6.....7.....8.
  0bb8: 00000900 39000000 09003c00 00000900  ....9.....<.....
  0bc8: 40000000 09004100 00000900 42000000  @.....A.....B...
  0bd8: 09004400 00000900 45000000 09004600  ..D.....E.....F.
  0be8: 00000900 4c000000 09004d00 00000900  ....L.....M.....
  0bf8: 4e000000 09004f00 00000900 54000000  N.....O.....T...
  0c08: 09005900 00000900 5a000000 09005b00  ..Y.....Z.....[.
  0c18: 00000900 5c000000 09005d00 00000900  ....\.....].....
  0c28: 63000000 09006700 00000900 68000000  c.....g.....h...
  0c38: 09006900 00000900 6a000000 09006b00  ..i.....j.....k.
  0c48: 00000900 78000000 09007b00 00000900  ....x.....{.....
  0c58: 7c000000 09007d00 00000900 7e000000  |.....}.....~...
  0c68: 09007f00 00000900 86000000 0a000200  ................
  0c78: 00000a00 03000000 0a000400 00000a00  ................
  0c88: 05000000 0a000600 00000a00 15000000  ................
  0c98: 0a001800 00000a00 19000000 0a001a00  ................
  0ca8: 00000a00 20000000 0a002100 00000a00  .... .....!.....
  0cb8: 22000000 0a002700 00000a00 28000000  ".....'.....(...
  0cc8: 0a002900 00000a00 2a000000 0a002b00  ..).....*.....+.
  0cd8: 00000a00 2c000000 0a003300 00000a00  ....,.....3.....
  0ce8: 34000000 0a003800 00000a00 3d000000  4.....8.....=...
  0cf8: 0a003e00 00000a00 3f000000 0a004000  ..>.....?.....@.
  0d08: 00000a00 41000000 0a004200 00000a00  ....A.....B.....
  0d18: 43000000 0a004600 00000a00 49000000  C.....F.....I...
  0d28: 0a004a00 00000a00 4b000000 0a004c00  ..J.....K.....L.
  0d38: 00000a00 4d000000 0a004e00 00000a00  ....M.....N.....
  0d48: 51000000 0a005400 00000a00 55000000  Q.....T.....U...
  0d58: 0a005600 00000a00 57000000 0a005800  ..V.....W.....X.
  0d68: 00000a00 59000000 0a005c00 00000a00  ....Y.....\.....
  0d78: 5f000000 0a006000 00000a00 61000000  _.....`.....a...
  0d88: 0a006c00 00000a00 70000000 0a007100  ..l.....p.....q.
  0d98: 00000a00 72000000 0a007400 00000a00  ....r.....t.....
  0da8: 86000000 0b000200 00000b00 03000000  ................
  0db8: 0b000400 00000b00 06000000 0b000a00  ................
  0dc8: 00000b00 0b000000 0b000c00 00000b00  ................
  0dd8: 0d000000 0b000e00 00000b00 0f000000  ................
  0de8: 0b001700 00000b00 18000000 0b001900  ................
  0df8: 00000b00 1a000000                    ........        

 Item  84 -- Length:  312  Offset: 1920 (0x0780)  Flags: NORMAL
  Block Id: 24  linp Index: 8240  Size: 312
  Has Nulls: 0  Has Varwidths: 0

  0780: 00001800 30203821 df040000 9a330000  ....0 8!.....3..
  0790: 00000000 00000000 00000b00 1b000000  ................
  07a0: 0b001c00 00000b00 1e000000 0b002500  ..............%.
  07b0: 00000b00 2f000000 0b003000 00000b00  ..../.....0.....
  07c0: 31000000 0b003200 00000b00 33000000  1.....2.....3...
  07d0: 0b003b00 00000b00 3f000000 0b004000  ..;.....?.....@.
  07e0: 00000b00 41000000 0b004500 00000b00  ....A.....E.....
  07f0: 49000000 0b004a00 00000b00 4b000000  I.....J.....K...
  0800: 0b005200 00000b00 56000000 0b005700  ..R.....V.....W.
  0810: 00000b00 58000000 0b006400 00000b00  ....X.....d.....
  0820: 65000000 0b006600 00000b00 67000000  e.....f.....g...
  0830: 0b006a00 00000b00 6d000000 0b007100  ..j.....m.....q.
  0840: 00000b00 72000000 0b007300 00000b00  ....r.....s.....
  0850: 7a000000 0b007e00 00000b00 7f000000  z.....~.........
  0860: 0b008000 00000b00 81000000 0b008400  ................
  0870: 00000c00 08000000 0c000900 00000c00  ................
  0880: 0a000000 0c000b00 00000c00 0c000000  ................
  0890: 0c000d00 00000c00 10000000 0c001300  ................
  08a0: 00000c00 14000000 0c001500 00000c00  ................
  08b0: 16000000 0c001e00                    ........        

 Item  85 -- Length:   24  Offset: 1896 (0x0768)  Flags: NORMAL
  Block Id: 12  linp Index: 34  Size: 24
  Has Nulls: 0  Has Varwidths: 0

  0768: 00000c00 22001800 df040000 9a330000  ...."........3..
  0778: 00000000 00000000                    ........        

 Item  86 -- Length:   24  Offset: 1872 (0x0750)  Flags: NORMAL
  Block Id: 12  linp Index: 35  Size: 24
  Has Nulls: 0  Has Varwidths: 0

  0750: 00000c00 23001800 df040000 9a330000  ....#........3..
  0760: 00000000 00000000                    ........        

 Item  87 -- Length:   24  Offset: 1848 (0x0738)  Flags: NORMAL
  Block Id: 12  linp Index: 36  Size: 24
  Has Nulls: 0  Has Varwidths: 0

  0738: 00000c00 24001800 df040000 9a330000  ....$........3..
  0748: 00000000 00000000                    ........        

 Item  88 -- Length:   24  Offset: 1824 (0x0720)  Flags: NORMAL
  Block Id: 12  linp Index: 37  Size: 24
  Has Nulls: 0  Has Varwidths: 0

  0720: 00000c00 25001800 df040000 9a330000  ....%........3..
  0730: 00000000 00000000                    ........        

 Item  89 -- Length:   24  Offset: 1800 (0x0708)  Flags: NORMAL
  Block Id: 12  linp Index: 38  Size: 24
  Has Nulls: 0  Has Varwidths: 0

  0708: 00000c00 26001800 df040000 9a330000  ....&........3..
  0718: 00000000 00000000                    ........        

 Item  90 -- Length:   24  Offset: 1776 (0x06f0)  Flags: NORMAL
  Block Id: 12  linp Index: 48  Size: 24
  Has Nulls: 0  Has Varwidths: 0

  06f0: 00000c00 30001800 df040000 9a330000  ....0........3..
  0700: 00000000 00000000                    ........        

 Item  91 -- Length:   24  Offset: 1752 (0x06d8)  Flags: NORMAL
  Block Id: 12  linp Index: 49  Size: 24
  Has Nulls: 0  Has Varwidths: 0

  06d8: 00000c00 31001800 df040000 9a330000  ....1........3..
  06e8: 00000000 00000000                    ........        

 Item  92 -- Length:   24  Offset: 1728 (0x06c0)  Flags: NORMAL
  Block Id: 12  linp Index: 50  Size: 24
  Has Nulls: 0  Has Varwidths: 0

  06c0: 00000c00 32001800 df040000 9a330000  ....2........3..
  06d0: 00000000 00000000                    ........        

 Item  93 -- Length:   24  Offset: 1704 (0x06a8)  Flags: NORMAL
  Block Id: 12  linp Index: 51  Size: 24
  Has Nulls: 0  Has Varwidths: 0

  06a8: 00000c00 33001800 df040000 9a330000  ....3........3..
  06b8: 00000000 00000000                    ........        

 Item  94 -- Length:   24  Offset: 1680 (0x0690)  Flags: NORMAL
  Block Id: 12  linp Index: 58  Size: 24
  Has Nulls: 0  Has Varwidths: 0

  0690: 00000c00 3a001800 df040000 9a330000  ....:........3..
  06a0: 00000000 00000000                    ........        

 Item  95 -- Length:   24  Offset: 1656 (0x0678)  Flags: NORMAL
  Block Id: 12  linp Index: 61  Size: 24
  Has Nulls: 0  Has Varwidths: 0

  0678: 00000c00 3d001800 df040000 9a330000  ....=........3..
  0688: 00000000 00000000                    ........        

 Item  96 -- Length:   24  Offset: 1632 (0x0660)  Flags: NORMAL
  Block Id: 12  linp Index: 62  Size: 24
  Has Nulls: 0  Has Varwidths: 0

  0660: 00000c00 3e001800 df040000 9a330000  ....>........3..
  0670: 00000000 00000000                    ........        

 Item  97 -- Length:   24  Offset: 1608 (0x0648)  Flags: NORMAL
  Block Id: 12  linp Index: 63  Size: 24
  Has Nulls: 0  Has Varwidths: 0

  0648: 00000c00 3f001800 df040000 9a330000  ....?........3..
  0658: 00000000 00000000                    ........        

 Item  98 -- Length:   24  Offset: 1584 (0x0630)  Flags: NORMAL
  Block Id: 12  linp Index: 64  Size: 24
  Has Nulls: 0  Has Varwidths: 0

  0630: 00000c00 40001800 df040000 9a330000  ....@........3..
  0640: 00000000 00000000                    ........        

 Item  99 -- Length:   24  Offset: 1536 (0x0600)  Flags: NORMAL
  Block Id: 12  linp Index: 74  Size: 24
  Has Nulls: 0  Has Varwidths: 0

  0600: 00000c00 4a001800 df040000 9a330000  ....J........3..
  0610: 00000000 00000000                    ........        

 Item 100 -- Length:   24  Offset: 1488 (0x05d0)  Flags: NORMAL
  Block Id: 12  linp Index: 78  Size: 24
  Has Nulls: 0  Has Varwidths: 0

  05d0: 00000c00 4e001800 df040000 9a330000  ....N........3..
  05e0: 00000000 00000000                    ........        

 Item 101 -- Length:   24  Offset: 1464 (0x05b8)  Flags: NORMAL
  Block Id: 12  linp Index: 79  Size: 24
  Has Nulls: 0  Has Varwidths: 0

  05b8: 00000c00 4f001800 df040000 9a330000  ....O........3..
  05c8: 00000000 00000000                    ........        

 Item 102 -- Length:   24  Offset: 1440 (0x05a0)  Flags: NORMAL
  Block Id: 12  linp Index: 80  Size: 24
  Has Nulls: 0  Has Varwidths: 0

  05a0: 00000c00 50001800 df040000 9a330000  ....P........3..
  05b0: 00000000 00000000                    ........        


<Special Section> -----
 BTree Index Section:
  Flags: 0x0001 (LEAF)
  Blocks: Previous (0)  Next (5)  Level (0)  CycleId (0)

  1ff0: 00000000 05000000 00000000 01000000  ................


Block    2 ********************************************************
<Header> -----
 Block Offset: 0x00004000         Offsets: Lower     456 (0x01c8)
 Block: Size 8192  Version    4            Upper    4536 (0x11b8)
 LSN:  logid      2 recoff 0x2c5660c0      Special  8176 (0x1ff0)
 Items:  108                      Free Space: 4080
 Checksum: 0x0000  Prune XID: 0x00000000  Flags: 0x0000 ()
 Length (including item array): 456

  0000: 02000000 c060562c 00000000 c801b811  .....`V,........
  0010: f01f0420 00000000 e09f2000 b89f5000  ... ...... ...P.
  0020: 909f5000 689f5000 409f5000 189f5000  ..P.h.P.@.P...P.
  0030: f09e5000 c89e5000 a09e5000 789e5000  ..P...P...P.x.P.
  0040: 509e5000 289e5000 109e3000 f89d3000  P.P.(.P...0...0.
  0050: d09d5000 a89d5000 809d5000 589d5000  ..P...P...P.X.P.
  0060: 309d5000 089d5000 e09c5000 b89c5000  0.P...P...P...P.
  0070: 909c5000 689c5000 409c5000 189c5000  ..P.h.P.@.P...P.
  0080: f09b5000 c89b5000 a09b5000 789b5000  ..P...P...P.x.P.
  0090: 509b5000 289b5000 009b5000 d89a5000  P.P.(.P...P...P.
  00a0: c09a3000 a89a3000 909a3000 689a5000  ..0...0...0.h.P.
  00b0: 409a5000 289a3000 109a3000 f8993000  @.P.(.0...0...0.
  00c0: d0995000 a8995000 80995000 58995000  ..P...P...P.X.P.
  00d0: 30995000 08995000 e0985000 b8985000  0.P...P...P...P.
  00e0: a0983000 88983000 70983000 58983000  ..0...0.p.0.X.0.
  00f0: 40983000 28983000 10983000 f8973000  @.0.(.0...0...0.
  0100: d0975000 a8975000 90973000 78973000  ..P...P...0.x.0.
  0110: 60973000 38975000 10975000 e8965000  `.0.8.P...P...P.
  0120: c0965000 98965000 80963000 68963000  ..P...P...0.h.0.
  0130: 50963000 28965000 f0957000 c8955000  P.0.(.P...p...P.
  0140: a0955000 88953000 70953000 58953000  ..P...0.p.0.X.0.
  0150: 30955000 08955000 e0945000 b8945000  0.P...P...P...P.
  0160: a0943000 88943000 70943000 58943000  ..0...0.p.0.X.0.
  0170: 40943000 28943000 10943000 f8933000  @.0.(.0...0...0.
  0180: e0933000 c8933000 a0935000 78935000  ..0...0...P.x.P.
  0190: 50935000 28935000 00935000 e8923000  P.P.(.P...P...0.
  01a0: d0923000 b8923000 90925000 68925000  ..0...0...P.h.P.
  01b0: 40925000 28923000 10923000 e8915000  @.P.(.0...0...P.
  01c0: d0913000 b8913000                    ..0...0.        

<Data> -----
 Item   1 -- Length:   16  Offset: 8160 (0x1fe0)  Flags: NORMAL
  Block Id: 24  linp Index: 2  Size: 16
  Has Nulls: 0  Has Varwidths: 0

  1fe0: 00001800 02001020 eb040000 49340000  ....... ....I4..

 Item   2 -- Length:   40  Offset: 8120 (0x1fb8)  Flags: NORMAL
  Block Id: 24  linp Index: 8194  Size: 40
  Has Nulls: 0  Has Varwidths: 0

  1fb8: 00001800 02202820 eb040000 b62f0000  ..... ( ...../..
  1fc8: 00000000 00000000 00000200 0e000000  ................
  1fd8: 02001000 00000000                    ........        

 Item   3 -- Length:   40  Offset: 8080 (0x1f90)  Flags: NORMAL
  Block Id: 24  linp Index: 8194  Size: 40
  Has Nulls: 0  Has Varwidths: 0

  1f90: 00001800 02202820 eb040000 ba2f0000  ..... ( ...../..
  1fa0: 00000000 00000000 00000200 16000000  ................
  1fb0: 02001800 00000000                    ........        

 Item   4 -- Length:   40  Offset: 8040 (0x1f68)  Flags: NORMAL
  Block Id: 24  linp Index: 8194  Size: 40
  Has Nulls: 0  Has Varwidths: 0

  1f68: 00001800 02202820 eb040000 be2f0000  ..... ( ...../..
  1f78: 00000000 00000000 00000200 1e000000  ................
  1f88: 02002000 00000000                    .. .....        

 Item   5 -- Length:   40  Offset: 8000 (0x1f40)  Flags: NORMAL
  Block Id: 24  linp Index: 8194  Size: 40
  Has Nulls: 0  Has Varwidths: 0

  1f40: 00001800 02202820 eb040000 c32f0000  ..... ( ...../..
  1f50: 00000000 00000000 00000200 21000000  ............!...
  1f60: 02002300 00000000                    ..#.....        

 Item   6 -- Length:   40  Offset: 7960 (0x1f18)  Flags: NORMAL
  Block Id: 24  linp Index: 8194  Size: 40
  Has Nulls: 0  Has Varwidths: 0

  1f18: 00001800 02202820 eb040000 c82f0000  ..... ( ...../..
  1f28: 00000000 00000000 00000200 24000000  ............$...
  1f38: 02002600 00000000                    ..&.....        

 Item   7 -- Length:   40  Offset: 7920 (0x1ef0)  Flags: NORMAL
  Block Id: 24  linp Index: 8194  Size: 40
  Has Nulls: 0  Has Varwidths: 0

  1ef0: 00001800 02202820 eb040000 cc2f0000  ..... ( ...../..
  1f00: 00000000 00000000 00000200 27000000  ............'...
  1f10: 02002900 00000000                    ..).....        

 Item   8 -- Length:   40  Offset: 7880 (0x1ec8)  Flags: NORMAL
  Block Id: 24  linp Index: 8194  Size: 40
  Has Nulls: 0  Has Varwidths: 0

  1ec8: 00001800 02202820 eb040000 d02f0000  ..... ( ...../..
  1ed8: 00000000 00000000 00000200 2a000000  ............*...
  1ee8: 02002c00 00000000                    ..,.....        

 Item   9 -- Length:   40  Offset: 7840 (0x1ea0)  Flags: NORMAL
  Block Id: 24  linp Index: 8194  Size: 40
  Has Nulls: 0  Has Varwidths: 0

  1ea0: 00001800 02202820 eb040000 d42f0000  ..... ( ...../..
  1eb0: 00000000 00000000 00000200 2d000000  ............-...
  1ec0: 02002f00 00000000                    ../.....        

 Item  10 -- Length:   40  Offset: 7800 (0x1e78)  Flags: NORMAL
  Block Id: 24  linp Index: 8194  Size: 40
  Has Nulls: 0  Has Varwidths: 0

  1e78: 00001800 02202820 eb040000 d92f0000  ..... ( ...../..
  1e88: 00000000 00000000 00000200 30000000  ............0...
  1e98: 02003200 00000000                    ..2.....        

 Item  11 -- Length:   40  Offset: 7760 (0x1e50)  Flags: NORMAL
  Block Id: 24  linp Index: 8194  Size: 40
  Has Nulls: 0  Has Varwidths: 0

  1e50: 00001800 02202820 eb040000 dd2f0000  ..... ( ...../..
  1e60: 00000000 00000000 00000200 33000000  ............3...
  1e70: 02003500 00000000                    ..5.....        

 Item  12 -- Length:   40  Offset: 7720 (0x1e28)  Flags: NORMAL
  Block Id: 24  linp Index: 8194  Size: 40
  Has Nulls: 0  Has Varwidths: 0

  1e28: 00001800 02202820 eb040000 e12f0000  ..... ( ...../..
  1e38: 00000000 00000000 00000200 36000000  ............6...
  1e48: 02003800 00000000                    ..8.....        

 Item  13 -- Length:   24  Offset: 7696 (0x1e10)  Flags: NORMAL
  Block Id: 2  linp Index: 60  Size: 24
  Has Nulls: 0  Has Varwidths: 0

  1e10: 00000200 3c001800 eb040000 e12f0000  ....<......../..
  1e20: 01000000 00000000                    ........        

 Item  14 -- Length:   24  Offset: 7672 (0x1df8)  Flags: NORMAL
  Block Id: 2  linp Index: 61  Size: 24
  Has Nulls: 0  Has Varwidths: 0

  1df8: 00000200 3d001800 eb040000 e12f0000  ....=......../..
  1e08: 04000000 00000000                    ........        

 Item  15 -- Length:   40  Offset: 7632 (0x1dd0)  Flags: NORMAL
  Block Id: 24  linp Index: 8194  Size: 40
  Has Nulls: 0  Has Varwidths: 0

  1dd0: 00001800 02202820 eb040000 e62f0000  ..... ( ...../..
  1de0: 00000000 00000000 00000200 39000000  ............9...
  1df0: 02003b00 00000000                    ..;.....        

 Item  16 -- Length:   40  Offset: 7592 (0x1da8)  Flags: NORMAL
  Block Id: 24  linp Index: 8194  Size: 40
  Has Nulls: 0  Has Varwidths: 0

  1da8: 00001800 02202820 eb040000 ea2f0000  ..... ( ...../..
  1db8: 00000000 00000000 00000200 3e000000  ............>...
  1dc8: 02004000 00000000                    ..@.....        

 Item  17 -- Length:   40  Offset: 7552 (0x1d80)  Flags: NORMAL
  Block Id: 24  linp Index: 8194  Size: 40
  Has Nulls: 0  Has Varwidths: 0

  1d80: 00001800 02202820 eb040000 ef2f0000  ..... ( ...../..
  1d90: 00000000 00000000 00000200 41000000  ............A...
  1da0: 02004300 00000000                    ..C.....        

 Item  18 -- Length:   40  Offset: 7512 (0x1d58)  Flags: NORMAL
  Block Id: 24  linp Index: 8194  Size: 40
  Has Nulls: 0  Has Varwidths: 0

  1d58: 00001800 02202820 eb040000 f32f0000  ..... ( ...../..
  1d68: 00000000 00000000 00000200 44000000  ............D...
  1d78: 02004600 00000000                    ..F.....        

 Item  19 -- Length:   40  Offset: 7472 (0x1d30)  Flags: NORMAL
  Block Id: 24  linp Index: 8194  Size: 40
  Has Nulls: 0  Has Varwidths: 0

  1d30: 00001800 02202820 eb040000 f82f0000  ..... ( ...../..
  1d40: 00000000 00000000 00000200 47000000  ............G...
  1d50: 02004900 00000000                    ..I.....        

 Item  20 -- Length:   40  Offset: 7432 (0x1d08)  Flags: NORMAL
  Block Id: 24  linp Index: 8194  Size: 40
  Has Nulls: 0  Has Varwidths: 0

  1d08: 00001800 02202820 eb040000 fd2f0000  ..... ( ...../..
  1d18: 00000000 00000000 00000200 4a000000  ............J...
  1d28: 02004c00 00000000                    ..L.....        

 Item  21 -- Length:   40  Offset: 7392 (0x1ce0)  Flags: NORMAL
  Block Id: 24  linp Index: 8194  Size: 40
  Has Nulls: 0  Has Varwidths: 0

  1ce0: 00001800 02202820 eb040000 01300000  ..... ( .....0..
  1cf0: 00000000 00000000 00000200 4d000000  ............M...
  1d00: 02004f00 00000000                    ..O.....        

 Item  22 -- Length:   40  Offset: 7352 (0x1cb8)  Flags: NORMAL
  Block Id: 24  linp Index: 8194  Size: 40
  Has Nulls: 0  Has Varwidths: 0

  1cb8: 00001800 02202820 eb040000 05300000  ..... ( .....0..
  1cc8: 00000000 00000000 00000200 50000000  ............P...
  1cd8: 02005200 00000000                    ..R.....        

 Item  23 -- Length:   40  Offset: 7312 (0x1c90)  Flags: NORMAL
  Block Id: 24  linp Index: 8194  Size: 40
  Has Nulls: 0  Has Varwidths: 0

  1c90: 00001800 02202820 eb040000 09300000  ..... ( .....0..
  1ca0: 00000000 00000000 00000200 53000000  ............S...
  1cb0: 02005500 00000000                    ..U.....        

 Item  24 -- Length:   40  Offset: 7272 (0x1c68)  Flags: NORMAL
  Block Id: 24  linp Index: 8194  Size: 40
  Has Nulls: 0  Has Varwidths: 0

  1c68: 00001800 02202820 eb040000 0d300000  ..... ( .....0..
  1c78: 00000000 00000000 00000200 56000000  ............V...
  1c88: 02005800 00000000                    ..X.....        

 Item  25 -- Length:   40  Offset: 7232 (0x1c40)  Flags: NORMAL
  Block Id: 24  linp Index: 8194  Size: 40
  Has Nulls: 0  Has Varwidths: 0

  1c40: 00001800 02202820 eb040000 12300000  ..... ( .....0..
  1c50: 00000000 00000000 00000200 59000000  ............Y...
  1c60: 02005b00 00000000                    ..[.....        

 Item  26 -- Length:   40  Offset: 7192 (0x1c18)  Flags: NORMAL
  Block Id: 24  linp Index: 8194  Size: 40
  Has Nulls: 0  Has Varwidths: 0

  1c18: 00001800 02202820 eb040000 17300000  ..... ( .....0..
  1c28: 00000000 00000000 00000200 5c000000  ............\...
  1c38: 02005e00 00000000                    ..^.....        

 Item  27 -- Length:   40  Offset: 7152 (0x1bf0)  Flags: NORMAL
  Block Id: 24  linp Index: 8194  Size: 40
  Has Nulls: 0  Has Varwidths: 0

  1bf0: 00001800 02202820 eb040000 1c300000  ..... ( .....0..
  1c00: 00000000 00000000 00000200 5f000000  ............_...
  1c10: 02006100 00000000                    ..a.....        

 Item  28 -- Length:   40  Offset: 7112 (0x1bc8)  Flags: NORMAL
  Block Id: 24  linp Index: 8194  Size: 40
  Has Nulls: 0  Has Varwidths: 0

  1bc8: 00001800 02202820 eb040000 21300000  ..... ( ....!0..
  1bd8: 00000000 00000000 00000200 62000000  ............b...
  1be8: 02006400 00000000                    ..d.....        

 Item  29 -- Length:   40  Offset: 7072 (0x1ba0)  Flags: NORMAL
  Block Id: 24  linp Index: 8194  Size: 40
  Has Nulls: 0  Has Varwidths: 0

  1ba0: 00001800 02202820 eb040000 26300000  ..... ( ....&0..
  1bb0: 00000000 00000000 00000200 65000000  ............e...
  1bc0: 02006700 00000000                    ..g.....        

 Item  30 -- Length:   40  Offset: 7032 (0x1b78)  Flags: NORMAL
  Block Id: 24  linp Index: 8194  Size: 40
  Has Nulls: 0  Has Varwidths: 0

  1b78: 00001800 02202820 eb040000 2b300000  ..... ( ....+0..
  1b88: 00000000 00000000 00000200 68000000  ............h...
  1b98: 02006a00 00000000                    ..j.....        

 Item  31 -- Length:   40  Offset: 6992 (0x1b50)  Flags: NORMAL
  Block Id: 24  linp Index: 8194  Size: 40
  Has Nulls: 0  Has Varwidths: 0

  1b50: 00001800 02202820 eb040000 30300000  ..... ( ....00..
  1b60: 00000000 00000000 00000200 6b000000  ............k...
  1b70: 02006d00 00000000                    ..m.....        

 Item  32 -- Length:   40  Offset: 6952 (0x1b28)  Flags: NORMAL
  Block Id: 24  linp Index: 8194  Size: 40
  Has Nulls: 0  Has Varwidths: 0

  1b28: 00001800 02202820 eb040000 34300000  ..... ( ....40..
  1b38: 00000000 00000000 00000200 6e000000  ............n...
  1b48: 02007000 00000000                    ..p.....        

 Item  33 -- Length:   40  Offset: 6912 (0x1b00)  Flags: NORMAL
  Block Id: 24  linp Index: 8194  Size: 40
  Has Nulls: 0  Has Varwidths: 0

  1b00: 00001800 02202820 eb040000 9b330000  ..... ( .....3..
  1b10: 00000000 00000000 00000300 4d000000  ............M...
  1b20: 03005100 00000000                    ..Q.....        

 Item  34 -- Length:   40  Offset: 6872 (0x1ad8)  Flags: NORMAL
  Block Id: 24  linp Index: 8194  Size: 40
  Has Nulls: 0  Has Varwidths: 0

  1ad8: 00001800 02202820 eb040000 a4330000  ..... ( .....3..
  1ae8: 00000000 00000000 00000300 58000000  ............X...
  1af8: 03005e00 00000000                    ..^.....        

 Item  35 -- Length:   24  Offset: 6848 (0x1ac0)  Flags: NORMAL
  Block Id: 3  linp Index: 104  Size: 24
  Has Nulls: 0  Has Varwidths: 0

  1ac0: 00000300 68001800 eb040000 a4330000  ....h........3..
  1ad0: 01000000 00000000                    ........        

 Item  36 -- Length:   24  Offset: 6824 (0x1aa8)  Flags: NORMAL
  Block Id: 3  linp Index: 105  Size: 24
  Has Nulls: 0  Has Varwidths: 0

  1aa8: 00000300 69001800 eb040000 a4330000  ....i........3..
  1ab8: 02000000 00000000                    ........        

 Item  37 -- Length:   24  Offset: 6800 (0x1a90)  Flags: NORMAL
  Block Id: 3  linp Index: 106  Size: 24
  Has Nulls: 0  Has Varwidths: 0

  1a90: 00000300 6a001800 eb040000 a4330000  ....j........3..
  1aa0: 03000000 00000000                    ........        

 Item  38 -- Length:   40  Offset: 6760 (0x1a68)  Flags: NORMAL
  Block Id: 24  linp Index: 8194  Size: 40
  Has Nulls: 0  Has Varwidths: 0

  1a68: 00001800 02202820 eb040000 a9330000  ..... ( .....3..
  1a78: 00000000 00000000 00000300 61000000  ............a...
  1a88: 03006700 00000000                    ..g.....        

 Item  39 -- Length:   40  Offset: 6720 (0x1a40)  Flags: NORMAL
  Block Id: 24  linp Index: 8194  Size: 40
  Has Nulls: 0  Has Varwidths: 0

  1a40: 00001800 02202820 eb040000 ad330000  ..... ( .....3..
  1a50: 00000000 00000000 00000300 6b000000  ............k...
  1a60: 04000500 00000000                    ........        

 Item  40 -- Length:   24  Offset: 6696 (0x1a28)  Flags: NORMAL
  Block Id: 10  linp Index: 131  Size: 24
  Has Nulls: 0  Has Varwidths: 0

  1a28: 00000a00 83001800 eb040000 ad330000  .............3..
  1a38: 02000000 00000000                    ........        

 Item  41 -- Length:   24  Offset: 6672 (0x1a10)  Flags: NORMAL
  Block Id: 10  linp Index: 132  Size: 24
  Has Nulls: 0  Has Varwidths: 0

  1a10: 00000a00 84001800 eb040000 ad330000  .............3..
  1a20: 03000000 00000000                    ........        

 Item  42 -- Length:   24  Offset: 6648 (0x19f8)  Flags: NORMAL
  Block Id: 10  linp Index: 133  Size: 24
  Has Nulls: 0  Has Varwidths: 0

  19f8: 00000a00 85001800 eb040000 ad330000  .............3..
  1a08: 1e000000 00000000                    ........        

 Item  43 -- Length:   40  Offset: 6608 (0x19d0)  Flags: NORMAL
  Block Id: 24  linp Index: 8194  Size: 40
  Has Nulls: 0  Has Varwidths: 0

  19d0: 00001800 02202820 eb040000 b2330000  ..... ( .....3..
  19e0: 00000000 00000000 00000400 13000000  ................
  19f0: 04001e00 00000000                    ........        

 Item  44 -- Length:   40  Offset: 6568 (0x19a8)  Flags: NORMAL
  Block Id: 24  linp Index: 8194  Size: 40
  Has Nulls: 0  Has Varwidths: 0

  19a8: 00001800 02202820 eb040000 b7330000  ..... ( .....3..
  19b8: 00000000 00000000 00000400 20000000  ............ ...
  19c8: 04002900 00000000                    ..).....        

 Item  45 -- Length:   40  Offset: 6528 (0x1980)  Flags: NORMAL
  Block Id: 24  linp Index: 8194  Size: 40
  Has Nulls: 0  Has Varwidths: 0

  1980: 00001800 02202820 eb040000 bc330000  ..... ( .....3..
  1990: 00000000 00000000 00000400 2b000000  ............+...
  19a0: 04003200 00000000                    ..2.....        

 Item  46 -- Length:   40  Offset: 6488 (0x1958)  Flags: NORMAL
  Block Id: 24  linp Index: 8194  Size: 40
  Has Nulls: 0  Has Varwidths: 0

  1958: 00001800 02202820 eb040000 c1330000  ..... ( .....3..
  1968: 00000000 00000000 00000400 35000000  ............5...
  1978: 04003c00 00000000                    ..<.....        

 Item  47 -- Length:   40  Offset: 6448 (0x1930)  Flags: NORMAL
  Block Id: 24  linp Index: 8194  Size: 40
  Has Nulls: 0  Has Varwidths: 0

  1930: 00001800 02202820 eb040000 c6330000  ..... ( .....3..
  1940: 00000000 00000000 00000400 3f000000  ............?...
  1950: 04004800 00000000                    ..H.....        

 Item  48 -- Length:   40  Offset: 6408 (0x1908)  Flags: NORMAL
  Block Id: 24  linp Index: 8194  Size: 40
  Has Nulls: 0  Has Varwidths: 0

  1908: 00001800 02202820 eb040000 cb330000  ..... ( .....3..
  1918: 00000000 00000000 00000400 4a000000  ............J...
  1928: 04005200 00000000                    ..R.....        

 Item  49 -- Length:   40  Offset: 6368 (0x18e0)  Flags: NORMAL
  Block Id: 24  linp Index: 8194  Size: 40
  Has Nulls: 0  Has Varwidths: 0

  18e0: 00001800 02202820 eb040000 d0330000  ..... ( .....3..
  18f0: 00000000 00000000 00000400 54000000  ............T...
  1900: 04005e00 00000000                    ..^.....        

 Item  50 -- Length:   40  Offset: 6328 (0x18b8)  Flags: NORMAL
  Block Id: 24  linp Index: 8194  Size: 40
  Has Nulls: 0  Has Varwidths: 0

  18b8: 00001800 02202820 eb040000 d5330000  ..... ( .....3..
  18c8: 00000000 00000000 00000400 60000000  ............`...
  18d8: 04006b00 00000000                    ..k.....        

 Item  51 -- Length:   24  Offset: 6304 (0x18a0)  Flags: NORMAL
  Block Id: 6  linp Index: 93  Size: 24
  Has Nulls: 0  Has Varwidths: 0

  18a0: 00000600 5d001800 eb040000 d5330000  ....]........3..
  18b0: 01000000 00000000                    ........        

 Item  52 -- Length:   24  Offset: 6280 (0x1888)  Flags: NORMAL
  Block Id: 6  linp Index: 94  Size: 24
  Has Nulls: 0  Has Varwidths: 0

  1888: 00000600 5e001800 eb040000 d5330000  ....^........3..
  1898: 02000000 00000000                    ........        

 Item  53 -- Length:   24  Offset: 6256 (0x1870)  Flags: NORMAL
  Block Id: 6  linp Index: 95  Size: 24
  Has Nulls: 0  Has Varwidths: 0

  1870: 00000600 5f001800 eb040000 d5330000  ...._........3..
  1880: 03000000 00000000                    ........        

 Item  54 -- Length:   24  Offset: 6232 (0x1858)  Flags: NORMAL
  Block Id: 6  linp Index: 96  Size: 24
  Has Nulls: 0  Has Varwidths: 0

  1858: 00000600 60001800 eb040000 d5330000  ....`........3..
  1868: 04000000 00000000                    ........        

 Item  55 -- Length:   24  Offset: 6208 (0x1840)  Flags: NORMAL
  Block Id: 6  linp Index: 97  Size: 24
  Has Nulls: 0  Has Varwidths: 0

  1840: 00000600 61001800 eb040000 d5330000  ....a........3..
  1850: 05000000 00000000                    ........        

 Item  56 -- Length:   24  Offset: 6184 (0x1828)  Flags: NORMAL
  Block Id: 6  linp Index: 98  Size: 24
  Has Nulls: 0  Has Varwidths: 0

  1828: 00000600 62001800 eb040000 d5330000  ....b........3..
  1838: 06000000 00000000                    ........        

 Item  57 -- Length:   24  Offset: 6160 (0x1810)  Flags: NORMAL
  Block Id: 6  linp Index: 99  Size: 24
  Has Nulls: 0  Has Varwidths: 0

  1810: 00000600 63001800 eb040000 d5330000  ....c........3..
  1820: 07000000 00000000                    ........        

 Item  58 -- Length:   24  Offset: 6136 (0x17f8)  Flags: NORMAL
  Block Id: 6  linp Index: 100  Size: 24
  Has Nulls: 0  Has Varwidths: 0

  17f8: 00000600 64001800 eb040000 d5330000  ....d........3..
  1808: 08000000 00000000                    ........        

 Item  59 -- Length:   40  Offset: 6096 (0x17d0)  Flags: NORMAL
  Block Id: 24  linp Index: 8194  Size: 40
  Has Nulls: 0  Has Varwidths: 0

  17d0: 00001800 02202820 eb040000 da330000  ..... ( .....3..
  17e0: 00000000 00000000 00000400 6f000000  ............o...
  17f0: 04007900 00000000                    ..y.....        

 Item  60 -- Length:   40  Offset: 6056 (0x17a8)  Flags: NORMAL
  Block Id: 24  linp Index: 8194  Size: 40
  Has Nulls: 0  Has Varwidths: 0

  17a8: 00001800 02202820 eb040000 df330000  ..... ( .....3..
  17b8: 00000000 00000000 00000400 7b000000  ............{...
  17c8: 05002200 00000000                    ..".....        

 Item  61 -- Length:   24  Offset: 6032 (0x1790)  Flags: NORMAL
  Block Id: 10  linp Index: 128  Size: 24
  Has Nulls: 0  Has Varwidths: 0

  1790: 00000a00 80001800 eb040000 df330000  .............3..
  17a0: 02000000 00000000                    ........        

 Item  62 -- Length:   24  Offset: 6008 (0x1778)  Flags: NORMAL
  Block Id: 10  linp Index: 129  Size: 24
  Has Nulls: 0  Has Varwidths: 0

  1778: 00000a00 81001800 eb040000 df330000  .............3..
  1788: 03000000 00000000                    ........        

 Item  63 -- Length:   24  Offset: 5984 (0x1760)  Flags: NORMAL
  Block Id: 10  linp Index: 130  Size: 24
  Has Nulls: 0  Has Varwidths: 0

  1760: 00000a00 82001800 eb040000 df330000  .............3..
  1770: 21000000 00000000                    !.......        

 Item  64 -- Length:   40  Offset: 5944 (0x1738)  Flags: NORMAL
  Block Id: 24  linp Index: 8194  Size: 40
  Has Nulls: 0  Has Varwidths: 0

  1738: 00001800 02202820 eb040000 e4330000  ..... ( .....3..
  1748: 00000000 00000000 00000500 30000000  ............0...
  1758: 05003a00 00000000                    ..:.....        

 Item  65 -- Length:   40  Offset: 5904 (0x1710)  Flags: NORMAL
  Block Id: 24  linp Index: 8194  Size: 40
  Has Nulls: 0  Has Varwidths: 0

  1710: 00001800 02202820 eb040000 e9330000  ..... ( .....3..
  1720: 00000000 00000000 00000500 3c000000  ............<...
  1730: 05004500 00000000                    ..E.....        

 Item  66 -- Length:   40  Offset: 5864 (0x16e8)  Flags: NORMAL
  Block Id: 24  linp Index: 8194  Size: 40
  Has Nulls: 0  Has Varwidths: 0

  16e8: 00001800 02202820 eb040000 ee330000  ..... ( .....3..
  16f8: 00000000 00000000 00000500 47000000  ............G...
  1708: 05005200 00000000                    ..R.....        

 Item  67 -- Length:   40  Offset: 5824 (0x16c0)  Flags: NORMAL
  Block Id: 24  linp Index: 8194  Size: 40
  Has Nulls: 0  Has Varwidths: 0

  16c0: 00001800 02202820 eb040000 f3330000  ..... ( .....3..
  16d0: 00000000 00000000 00000500 55000000  ............U...
  16e0: 05005e00 00000000                    ..^.....        

 Item  68 -- Length:   40  Offset: 5784 (0x1698)  Flags: NORMAL
  Block Id: 24  linp Index: 8194  Size: 40
  Has Nulls: 0  Has Varwidths: 0

  1698: 00001800 02202820 eb040000 f8330000  ..... ( .....3..
  16a8: 00000000 00000000 00000500 60000000  ............`...
  16b8: 05007e00 00000000                    ..~.....        

 Item  69 -- Length:   24  Offset: 5760 (0x1680)  Flags: NORMAL
  Block Id: 10  linp Index: 125  Size: 24
  Has Nulls: 0  Has Varwidths: 0

  1680: 00000a00 7d001800 eb040000 f8330000  ....}........3..
  1690: 02000000 00000000                    ........        

 Item  70 -- Length:   24  Offset: 5736 (0x1668)  Flags: NORMAL
  Block Id: 10  linp Index: 126  Size: 24
  Has Nulls: 0  Has Varwidths: 0

  1668: 00000a00 7e001800 eb040000 f8330000  ....~........3..
  1678: 03000000 00000000                    ........        

 Item  71 -- Length:   24  Offset: 5712 (0x1650)  Flags: NORMAL
  Block Id: 10  linp Index: 127  Size: 24
  Has Nulls: 0  Has Varwidths: 0

  1650: 00000a00 7f001800 eb040000 f8330000  .............3..
  1660: 1b000000 00000000                    ........        

 Item  72 -- Length:   40  Offset: 5672 (0x1628)  Flags: NORMAL
  Block Id: 24  linp Index: 8194  Size: 40
  Has Nulls: 0  Has Varwidths: 0

  1628: 00001800 02202820 eb040000 fd330000  ..... ( .....3..
  1638: 00000000 00000000 00000600 01000000  ................
  1648: 06000500 00000000                    ........        

 Item  73 -- Length:   56  Offset: 5616 (0x15f0)  Flags: NORMAL
  Block Id: 24  linp Index: 8197  Size: 56
  Has Nulls: 0  Has Varwidths: 0

  15f0: 00001800 05203820 eb040000 fd330000  ..... 8 .....3..
  1600: 01000000 00000000 00000600 5c000000  ............\...
  1610: 07001600 00000900 0e000000 09007700  ..............w.
  1620: 00000a00 14000000                    ........        

 Item  74 -- Length:   40  Offset: 5576 (0x15c8)  Flags: NORMAL
  Block Id: 24  linp Index: 8194  Size: 40
  Has Nulls: 0  Has Varwidths: 0

  15c8: 00001800 02202820 eb040000 01340000  ..... ( .....4..
  15d8: 00000000 00000000 00000600 07000000  ................
  15e8: 06001300 00000000                    ........        

 Item  75 -- Length:   40  Offset: 5536 (0x15a0)  Flags: NORMAL
  Block Id: 24  linp Index: 8194  Size: 40
  Has Nulls: 0  Has Varwidths: 0

  15a0: 00001800 02202820 eb040000 06340000  ..... ( .....4..
  15b0: 00000000 00000000 00000600 18000000  ................
  15c0: 06003b00 00000000                    ..;.....        

 Item  76 -- Length:   24  Offset: 5512 (0x1588)  Flags: NORMAL
  Block Id: 10  linp Index: 122  Size: 24
  Has Nulls: 0  Has Varwidths: 0

  1588: 00000a00 7a001800 eb040000 06340000  ....z........4..
  1598: 02000000 00000000                    ........        

 Item  77 -- Length:   24  Offset: 5488 (0x1570)  Flags: NORMAL
  Block Id: 10  linp Index: 123  Size: 24
  Has Nulls: 0  Has Varwidths: 0

  1570: 00000a00 7b001800 eb040000 06340000  ....{........4..
  1580: 03000000 00000000                    ........        

 Item  78 -- Length:   24  Offset: 5464 (0x1558)  Flags: NORMAL
  Block Id: 10  linp Index: 124  Size: 24
  Has Nulls: 0  Has Varwidths: 0

  1558: 00000a00 7c001800 eb040000 06340000  ....|........4..
  1568: 1f000000 00000000                    ........        

 Item  79 -- Length:   40  Offset: 5424 (0x1530)  Flags: NORMAL
  Block Id: 24  linp Index: 8194  Size: 40
  Has Nulls: 0  Has Varwidths: 0

  1530: 00001800 02202820 eb040000 0b340000  ..... ( .....4..
  1540: 00000000 00000000 00000600 41000000  ............A...
  1550: 06004d00 00000000                    ..M.....        

 Item  80 -- Length:   40  Offset: 5384 (0x1508)  Flags: NORMAL
  Block Id: 24  linp Index: 8194  Size: 40
  Has Nulls: 0  Has Varwidths: 0

  1508: 00001800 02202820 eb040000 10340000  ..... ( .....4..
  1518: 00000000 00000000 00000600 50000000  ............P...
  1528: 06005b00 00000000                    ..[.....        

 Item  81 -- Length:   40  Offset: 5344 (0x14e0)  Flags: NORMAL
  Block Id: 24  linp Index: 8194  Size: 40
  Has Nulls: 0  Has Varwidths: 0

  14e0: 00001800 02202820 eb040000 14340000  ..... ( .....4..
  14f0: 00000000 00000000 00000600 66000000  ............f...
  1500: 06007300 00000000                    ..s.....        

 Item  82 -- Length:   40  Offset: 5304 (0x14b8)  Flags: NORMAL
  Block Id: 24  linp Index: 8194  Size: 40
  Has Nulls: 0  Has Varwidths: 0

  14b8: 00001800 02202820 eb040000 19340000  ..... ( .....4..
  14c8: 00000000 00000000 00000600 75000000  ............u...
  14d8: 06008200 00000000                    ........        

 Item  83 -- Length:   24  Offset: 5280 (0x14a0)  Flags: NORMAL
  Block Id: 7  linp Index: 12  Size: 24
  Has Nulls: 0  Has Varwidths: 0

  14a0: 00000700 0c001800 eb040000 19340000  .............4..
  14b0: 01000000 00000000                    ........        

 Item  84 -- Length:   24  Offset: 5256 (0x1488)  Flags: NORMAL
  Block Id: 7  linp Index: 13  Size: 24
  Has Nulls: 0  Has Varwidths: 0

  1488: 00000700 0d001800 eb040000 19340000  .............4..
  1498: 02000000 00000000                    ........        

 Item  85 -- Length:   24  Offset: 5232 (0x1470)  Flags: NORMAL
  Block Id: 7  linp Index: 14  Size: 24
  Has Nulls: 0  Has Varwidths: 0

  1470: 00000700 0e001800 eb040000 19340000  .............4..
  1480: 03000000 00000000                    ........        

 Item  86 -- Length:   24  Offset: 5208 (0x1458)  Flags: NORMAL
  Block Id: 7  linp Index: 15  Size: 24
  Has Nulls: 0  Has Varwidths: 0

  1458: 00000700 0f001800 eb040000 19340000  .............4..
  1468: 04000000 00000000                    ........        

 Item  87 -- Length:   24  Offset: 5184 (0x1440)  Flags: NORMAL
  Block Id: 7  linp Index: 16  Size: 24
  Has Nulls: 0  Has Varwidths: 0

  1440: 00000700 10001800 eb040000 19340000  .............4..
  1450: 05000000 00000000                    ........        

 Item  88 -- Length:   24  Offset: 5160 (0x1428)  Flags: NORMAL
  Block Id: 7  linp Index: 17  Size: 24
  Has Nulls: 0  Has Varwidths: 0

  1428: 00000700 11001800 eb040000 19340000  .............4..
  1438: 06000000 00000000                    ........        

 Item  89 -- Length:   24  Offset: 5136 (0x1410)  Flags: NORMAL
  Block Id: 7  linp Index: 18  Size: 24
  Has Nulls: 0  Has Varwidths: 0

  1410: 00000700 12001800 eb040000 19340000  .............4..
  1420: 07000000 00000000                    ........        

 Item  90 -- Length:   24  Offset: 5112 (0x13f8)  Flags: NORMAL
  Block Id: 7  linp Index: 19  Size: 24
  Has Nulls: 0  Has Varwidths: 0

  13f8: 00000700 13001800 eb040000 19340000  .............4..
  1408: 08000000 00000000                    ........        

 Item  91 -- Length:   24  Offset: 5088 (0x13e0)  Flags: NORMAL
  Block Id: 7  linp Index: 20  Size: 24
  Has Nulls: 0  Has Varwidths: 0

  13e0: 00000700 14001800 eb040000 19340000  .............4..
  13f0: 09000000 00000000                    ........        

 Item  92 -- Length:   24  Offset: 5064 (0x13c8)  Flags: NORMAL
  Block Id: 7  linp Index: 21  Size: 24
  Has Nulls: 0  Has Varwidths: 0

  13c8: 00000700 15001800 eb040000 19340000  .............4..
  13d8: 0a000000 00000000                    ........        

 Item  93 -- Length:   40  Offset: 5024 (0x13a0)  Flags: NORMAL
  Block Id: 24  linp Index: 8194  Size: 40
  Has Nulls: 0  Has Varwidths: 0

  13a0: 00001800 02202820 eb040000 1e340000  ..... ( .....4..
  13b0: 00000000 00000000 00000600 86000000  ................
  13c0: 07000b00 00000000                    ........        

 Item  94 -- Length:   40  Offset: 4984 (0x1378)  Flags: NORMAL
  Block Id: 24  linp Index: 8194  Size: 40
  Has Nulls: 0  Has Varwidths: 0

  1378: 00001800 02202820 eb040000 22340000  ..... ( ...."4..
  1388: 00000000 00000000 00000700 18000000  ................
  1398: 07002100 00000000                    ..!.....        

 Item  95 -- Length:   40  Offset: 4944 (0x1350)  Flags: NORMAL
  Block Id: 24  linp Index: 8194  Size: 40
  Has Nulls: 0  Has Varwidths: 0

  1350: 00001800 02202820 eb040000 27340000  ..... ( ....'4..
  1360: 00000000 00000000 00000700 23000000  ............#...
  1370: 07002f00 00000000                    ../.....        

 Item  96 -- Length:   40  Offset: 4904 (0x1328)  Flags: NORMAL
  Block Id: 24  linp Index: 8194  Size: 40
  Has Nulls: 0  Has Varwidths: 0

  1328: 00001800 02202820 eb040000 2c340000  ..... ( ....,4..
  1338: 00000000 00000000 00000700 31000000  ............1...
  1348: 07003d00 00000000                    ..=.....        

 Item  97 -- Length:   40  Offset: 4864 (0x1300)  Flags: NORMAL
  Block Id: 24  linp Index: 8194  Size: 40
  Has Nulls: 0  Has Varwidths: 0

  1300: 00001800 02202820 eb040000 31340000  ..... ( ....14..
  1310: 00000000 00000000 00000700 3f000000  ............?...
  1320: 08000c00 00000000                    ........        

 Item  98 -- Length:   24  Offset: 4840 (0x12e8)  Flags: NORMAL
  Block Id: 10  linp Index: 119  Size: 24
  Has Nulls: 0  Has Varwidths: 0

  12e8: 00000a00 77001800 eb040000 31340000  ....w.......14..
  12f8: 02000000 00000000                    ........        

 Item  99 -- Length:   24  Offset: 4816 (0x12d0)  Flags: NORMAL
  Block Id: 10  linp Index: 120  Size: 24
  Has Nulls: 0  Has Varwidths: 0

  12d0: 00000a00 78001800 eb040000 31340000  ....x.......14..
  12e0: 03000000 00000000                    ........        

 Item 100 -- Length:   24  Offset: 4792 (0x12b8)  Flags: NORMAL
  Block Id: 10  linp Index: 121  Size: 24
  Has Nulls: 0  Has Varwidths: 0

  12b8: 00000a00 79001800 eb040000 31340000  ....y.......14..
  12c8: 24000000 00000000                    $.......        

 Item 101 -- Length:   40  Offset: 4752 (0x1290)  Flags: NORMAL
  Block Id: 24  linp Index: 8194  Size: 40
  Has Nulls: 0  Has Varwidths: 0

  1290: 00001800 02202820 eb040000 36340000  ..... ( ....64..
  12a0: 00000000 00000000 00000800 12000000  ................
  12b0: 08001c00 00000000                    ........        

 Item 102 -- Length:   40  Offset: 4712 (0x1268)  Flags: NORMAL
  Block Id: 24  linp Index: 8194  Size: 40
  Has Nulls: 0  Has Varwidths: 0

  1268: 00001800 02202820 eb040000 3a340000  ..... ( ....:4..
  1278: 00000000 00000000 00000800 1f000000  ................
  1288: 08002e00 00000000                    ........        

 Item 103 -- Length:   40  Offset: 4672 (0x1240)  Flags: NORMAL
  Block Id: 24  linp Index: 8194  Size: 40
  Has Nulls: 0  Has Varwidths: 0

  1240: 00001800 02202820 eb040000 3f340000  ..... ( ....?4..
  1250: 00000000 00000000 00000800 34000000  ............4...
  1260: 08004000 00000000                    ..@.....        

 Item 104 -- Length:   24  Offset: 4648 (0x1228)  Flags: NORMAL
  Block Id: 8  linp Index: 62  Size: 24
  Has Nulls: 0  Has Varwidths: 0

  1228: 00000800 3e001800 eb040000 42340000  ....>.......B4..
  1238: 01000000 00000000                    ........        

 Item 105 -- Length:   24  Offset: 4624 (0x1210)  Flags: NORMAL
  Block Id: 8  linp Index: 63  Size: 24
  Has Nulls: 0  Has Varwidths: 0

  1210: 00000800 3f001800 eb040000 42340000  ....?.......B4..
  1220: 02000000 00000000                    ........        

 Item 106 -- Length:   40  Offset: 4584 (0x11e8)  Flags: NORMAL
  Block Id: 24  linp Index: 8194  Size: 40
  Has Nulls: 0  Has Varwidths: 0

  11e8: 00001800 02202820 eb040000 44340000  ..... ( ....D4..
  11f8: 00000000 00000000 00000800 41000000  ............A...
  1208: 08004b00 00000000                    ..K.....        

 Item 107 -- Length:   24  Offset: 4560 (0x11d0)  Flags: NORMAL
  Block Id: 8  linp Index: 73  Size: 24
  Has Nulls: 0  Has Varwidths: 0

  11d0: 00000800 49001800 eb040000 47340000  ....I.......G4..
  11e0: 01000000 00000000                    ........        

 Item 108 -- Length:   24  Offset: 4536 (0x11b8)  Flags: NORMAL
  Block Id: 8  linp Index: 74  Size: 24
  Has Nulls: 0  Has Varwidths: 0

  11b8: 00000800 4a001800 eb040000 47340000  ....J.......G4..
  11c8: 02000000 00000000                    ........        


<Special Section> -----
 BTree Index Section:
  Flags: 0x0001 (LEAF)
  Blocks: Previous (4)  Next (7)  Level (0)  CycleId (0)

  1ff0: 04000000 07000000 00000000 01000000  ................


Block    3 ********************************************************
<Header> -----
 Block Offset: 0x00006000         Offsets: Lower      48 (0x0030)
 Block: Size 8192  Version    4            Upper    8088 (0x1f98)
 LSN:  logid      2 recoff 0x2c566190      Special  8176 (0x1ff0)
 Items:    6                      Free Space: 8040
 Checksum: 0x0000  Prune XID: 0x00000000  Flags: 0x0000 ()
 Length (including item array): 48

  0000: 02000000 9061562c 00000000 3000981f  .....aV,....0...
  0010: f01f0420 00000000 e89f1000 b89f2000  ... .......... .
  0020: c89f2000 d89f2000 989f2000 a89f2000  .. ... ... ... .

<Data> -----
 Item   1 -- Length:    8  Offset: 8168 (0x1fe8)  Flags: NORMAL
  Block Id: 1  linp Index: 0  Size: 8
  Has Nulls: 0  Has Varwidths: 0

  1fe8: 00000100 00000820                    .......         

 Item   2 -- Length:   16  Offset: 8120 (0x1fb8)  Flags: NORMAL
  Block Id: 5  linp Index: 2  Size: 16
  Has Nulls: 0  Has Varwidths: 0

  1fb8: 00000500 02001020 df040000 9d330000  ....... .....3..

 Item   3 -- Length:   16  Offset: 8136 (0x1fc8)  Flags: NORMAL
  Block Id: 4  linp Index: 2  Size: 16
  Has Nulls: 0  Has Varwidths: 0

  1fc8: 00000400 02001020 eb040000 522f0000  ....... ....R/..

 Item   4 -- Length:   16  Offset: 8152 (0x1fd8)  Flags: NORMAL
  Block Id: 2  linp Index: 2  Size: 16
  Has Nulls: 0  Has Varwidths: 0

  1fd8: 00000200 02001020 eb040000 b62f0000  ....... ...../..

 Item   5 -- Length:   16  Offset: 8088 (0x1f98)  Flags: NORMAL
  Block Id: 7  linp Index: 2  Size: 16
  Has Nulls: 0  Has Varwidths: 0

  1f98: 00000700 02001020 eb040000 49340000  ....... ....I4..

 Item   6 -- Length:   16  Offset: 8104 (0x1fa8)  Flags: NORMAL
  Block Id: 6  linp Index: 2  Size: 16
  Has Nulls: 0  Has Varwidths: 0

  1fa8: 00000600 02001020 100e0000 67330000  ....... ....g3..


<Special Section> -----
 BTree Index Section:
  Flags: 0x0002 (ROOT)
  Blocks: Previous (0)  Next (0)  Level (1)  CycleId (0)

  1ff0: 00000000 00000000 01000000 02000000  ................


Block    4 ********************************************************
<Header> -----
 Block Offset: 0x00008000         Offsets: Lower     400 (0x0190)
 Block: Size 8192  Version    4            Upper    4440 (0x1158)
 LSN:  logid      2 recoff 0x2c567200      Special  8176 (0x1ff0)
 Items:   94                      Free Space: 4040
 Checksum: 0x0000  Prune XID: 0x00000000  Flags: 0x0000 ()
 Length (including item array): 400

  0000: 02000000 0072562c 00000000 90015811  .....rV,......X.
  0010: f01f0420 00000000 e09f2000 b89f5000  ... ...... ...P.
  0020: 909f5000 689f5000 409f5000 189f5000  ..P.h.P.@.P...P.
  0030: f09e5000 c89e5000 a09e5000 789e5000  ..P...P...P.x.P.
  0040: 509e5000 289e5000 009e5000 d89d5000  P.P.(.P...P...P.
  0050: b09d5000 889d5000 609d5000 389d5000  ..P...P.`.P.8.P.
  0060: 109d5000 e89c5000 c09c5000 989c5000  ..P...P...P...P.
  0070: 709c5000 489c5000 209c5000 f89b5000  p.P.H.P. .P...P.
  0080: d09b5000 a89b5000 809b5000 589b5000  ..P...P...P.X.P.
  0090: 309b5000 089b5000 e09a5000 b89a5000  0.P...P...P...P.
  00a0: 909a5000 689a5000 409a5000 189a5000  ..P.h.P.@.P...P.
  00b0: f0995000 c8995000 a0995000 78995000  ..P...P...P.x.P.
  00c0: 50995000 28995000 00995000 d8985000  P.P.(.P...P...P.
  00d0: b0985000 88985000 60985000 38985000  ..P...P.`.P.8.P.
  00e0: 10985000 e8975000 c0975000 98975000  ..P...P...P...P.
  00f0: 70975000 48975000 20975000 f8965000  p.P.H.P. .P...P.
  0100: d0965000 a8965000 80965000 58965000  ..P...P...P.X.P.
  0110: 30965000 08965000 e0955000 b8955000  0.P...P...P...P.
  0120: 90955000 68955000 40955000 18955000  ..P.h.P.@.P...P.
  0130: f0945000 c8945000 a0945000 78945000  ..P...P...P.x.P.
  0140: 50945000 28945000 00945000 d8935000  P.P.(.P...P...P.
  0150: b0935000 88935000 60935000 38935000  ..P...P.`.P.8.P.
  0160: 10935000 e8925000 c0925000 98925000  ..P...P...P...P.
  0170: 70925000 48925000 20925000 f8915000  p.P.H.P. .P...P.
  0180: d0915000 a8915000 80915000 58915000  ..P...P...P.X.P.

<Data> -----
 Item   1 -- Length:   16  Offset: 8160 (0x1fe0)  Flags: NORMAL
  Block Id: 24  linp Index: 2  Size: 16
  Has Nulls: 0  Has Varwidths: 0

  1fe0: 00001800 02001020 eb040000 b62f0000  ....... ...../..

 Item   2 -- Length:   40  Offset: 8120 (0x1fb8)  Flags: NORMAL
  Block Id: 24  linp Index: 8194  Size: 40
  Has Nulls: 0  Has Varwidths: 0

  1fb8: 00001800 02202820 eb040000 522f0000  ..... ( ....R/..
  1fc8: 00000000 00000000 00000000 57000000  ............W...
  1fd8: 00005900 00000000                    ..Y.....        

 Item   3 -- Length:   40  Offset: 8080 (0x1f90)  Flags: NORMAL
  Block Id: 24  linp Index: 8194  Size: 40
  Has Nulls: 0  Has Varwidths: 0

  1f90: 00001800 02202820 eb040000 562f0000  ..... ( ....V/..
  1fa0: 00000000 00000000 00000000 5a000000  ............Z...
  1fb0: 00005c00 00000000                    ..\.....        

 Item   4 -- Length:   40  Offset: 8040 (0x1f68)  Flags: NORMAL
  Block Id: 24  linp Index: 8194  Size: 40
  Has Nulls: 0  Has Varwidths: 0

  1f68: 00001800 02202820 eb040000 5a2f0000  ..... ( ....Z/..
  1f78: 00000000 00000000 00000000 5d000000  ............]...
  1f88: 00005f00 00000000                    .._.....        

 Item   5 -- Length:   40  Offset: 8000 (0x1f40)  Flags: NORMAL
  Block Id: 24  linp Index: 8194  Size: 40
  Has Nulls: 0  Has Varwidths: 0

  1f40: 00001800 02202820 eb040000 5e2f0000  ..... ( ....^/..
  1f50: 00000000 00000000 00000000 60000000  ............`...
  1f60: 00006200 00000000                    ..b.....        

 Item   6 -- Length:   40  Offset: 7960 (0x1f18)  Flags: NORMAL
  Block Id: 24  linp Index: 8194  Size: 40
  Has Nulls: 0  Has Varwidths: 0

  1f18: 00001800 02202820 eb040000 622f0000  ..... ( ....b/..
  1f28: 00000000 00000000 00000000 63000000  ............c...
  1f38: 00006500 00000000                    ..e.....        

 Item   7 -- Length:   40  Offset: 7920 (0x1ef0)  Flags: NORMAL
  Block Id: 24  linp Index: 8194  Size: 40
  Has Nulls: 0  Has Varwidths: 0

  1ef0: 00001800 02202820 eb040000 662f0000  ..... ( ....f/..
  1f00: 00000000 00000000 00000000 66000000  ............f...
  1f10: 00006800 00000000                    ..h.....        

 Item   8 -- Length:   40  Offset: 7880 (0x1ec8)  Flags: NORMAL
  Block Id: 24  linp Index: 8194  Size: 40
  Has Nulls: 0  Has Varwidths: 0

  1ec8: 00001800 02202820 eb040000 6a2f0000  ..... ( ....j/..
  1ed8: 00000000 00000000 00000000 69000000  ............i...
  1ee8: 00006b00 00000000                    ..k.....        

 Item   9 -- Length:   40  Offset: 7840 (0x1ea0)  Flags: NORMAL
  Block Id: 24  linp Index: 8194  Size: 40
  Has Nulls: 0  Has Varwidths: 0

  1ea0: 00001800 02202820 eb040000 6e2f0000  ..... ( ....n/..
  1eb0: 00000000 00000000 00000000 6c000000  ............l...
  1ec0: 00006e00 00000000                    ..n.....        

 Item  10 -- Length:   40  Offset: 7800 (0x1e78)  Flags: NORMAL
  Block Id: 24  linp Index: 8194  Size: 40
  Has Nulls: 0  Has Varwidths: 0

  1e78: 00001800 02202820 eb040000 6e2f0000  ..... ( ....n/..
  1e88: 01000000 00000000 00000000 75000000  ............u...
  1e98: 01001900 00000000                    ........        

 Item  11 -- Length:   40  Offset: 7760 (0x1e50)  Flags: NORMAL
  Block Id: 24  linp Index: 8194  Size: 40
  Has Nulls: 0  Has Varwidths: 0

  1e50: 00001800 02202820 eb040000 6e2f0000  ..... ( ....n/..
  1e60: 02000000 00000000 00000000 76000000  ............v...
  1e70: 01001a00 00000000                    ........        

 Item  12 -- Length:   40  Offset: 7720 (0x1e28)  Flags: NORMAL
  Block Id: 24  linp Index: 8194  Size: 40
  Has Nulls: 0  Has Varwidths: 0

  1e28: 00001800 02202820 eb040000 6e2f0000  ..... ( ....n/..
  1e38: 03000000 00000000 00000000 77000000  ............w...
  1e48: 01001b00 00000000                    ........        

 Item  13 -- Length:   40  Offset: 7680 (0x1e00)  Flags: NORMAL
  Block Id: 24  linp Index: 8194  Size: 40
  Has Nulls: 0  Has Varwidths: 0

  1e00: 00001800 02202820 eb040000 6e2f0000  ..... ( ....n/..
  1e10: 04000000 00000000 00000000 78000000  ............x...
  1e20: 01001c00 00000000                    ........        

 Item  14 -- Length:   40  Offset: 7640 (0x1dd8)  Flags: NORMAL
  Block Id: 24  linp Index: 8194  Size: 40
  Has Nulls: 0  Has Varwidths: 0

  1dd8: 00001800 02202820 eb040000 6e2f0000  ..... ( ....n/..
  1de8: 05000000 00000000 00000000 79000000  ............y...
  1df8: 01001d00 00000000                    ........        

 Item  15 -- Length:   40  Offset: 7600 (0x1db0)  Flags: NORMAL
  Block Id: 24  linp Index: 8194  Size: 40
  Has Nulls: 0  Has Varwidths: 0

  1db0: 00001800 02202820 eb040000 6e2f0000  ..... ( ....n/..
  1dc0: 06000000 00000000 00000000 7a000000  ............z...
  1dd0: 01001e00 00000000                    ........        

 Item  16 -- Length:   40  Offset: 7560 (0x1d88)  Flags: NORMAL
  Block Id: 24  linp Index: 8194  Size: 40
  Has Nulls: 0  Has Varwidths: 0

  1d88: 00001800 02202820 eb040000 6e2f0000  ..... ( ....n/..
  1d98: 07000000 00000000 00000000 7b000000  ............{...
  1da8: 01001f00 00000000                    ........        

 Item  17 -- Length:   40  Offset: 7520 (0x1d60)  Flags: NORMAL
  Block Id: 24  linp Index: 8194  Size: 40
  Has Nulls: 0  Has Varwidths: 0

  1d60: 00001800 02202820 eb040000 6e2f0000  ..... ( ....n/..
  1d70: 08000000 00000000 00000000 7c000000  ............|...
  1d80: 01002000 00000000                    .. .....        

 Item  18 -- Length:   40  Offset: 7480 (0x1d38)  Flags: NORMAL
  Block Id: 24  linp Index: 8194  Size: 40
  Has Nulls: 0  Has Varwidths: 0

  1d38: 00001800 02202820 eb040000 6e2f0000  ..... ( ....n/..
  1d48: 09000000 00000000 00000000 7d000000  ............}...
  1d58: 01002100 00000000                    ..!.....        

 Item  19 -- Length:   40  Offset: 7440 (0x1d10)  Flags: NORMAL
  Block Id: 24  linp Index: 8194  Size: 40
  Has Nulls: 0  Has Varwidths: 0

  1d10: 00001800 02202820 eb040000 6e2f0000  ..... ( ....n/..
  1d20: 0a000000 00000000 00000000 7e000000  ............~...
  1d30: 01002200 00000000                    ..".....        

 Item  20 -- Length:   40  Offset: 7400 (0x1ce8)  Flags: NORMAL
  Block Id: 24  linp Index: 8194  Size: 40
  Has Nulls: 0  Has Varwidths: 0

  1ce8: 00001800 02202820 eb040000 6e2f0000  ..... ( ....n/..
  1cf8: 0b000000 00000000 00000000 7f000000  ................
  1d08: 01002300 00000000                    ..#.....        

 Item  21 -- Length:   40  Offset: 7360 (0x1cc0)  Flags: NORMAL
  Block Id: 24  linp Index: 8194  Size: 40
  Has Nulls: 0  Has Varwidths: 0

  1cc0: 00001800 02202820 eb040000 6e2f0000  ..... ( ....n/..
  1cd0: 0c000000 00000000 00000000 80000000  ................
  1ce0: 01002400 00000000                    ..$.....        

 Item  22 -- Length:   40  Offset: 7320 (0x1c98)  Flags: NORMAL
  Block Id: 24  linp Index: 8194  Size: 40
  Has Nulls: 0  Has Varwidths: 0

  1c98: 00001800 02202820 eb040000 6e2f0000  ..... ( ....n/..
  1ca8: 0d000000 00000000 00000000 81000000  ................
  1cb8: 01002500 00000000                    ..%.....        

 Item  23 -- Length:   40  Offset: 7280 (0x1c70)  Flags: NORMAL
  Block Id: 24  linp Index: 8194  Size: 40
  Has Nulls: 0  Has Varwidths: 0

  1c70: 00001800 02202820 eb040000 6e2f0000  ..... ( ....n/..
  1c80: 0e000000 00000000 00000000 82000000  ................
  1c90: 01002600 00000000                    ..&.....        

 Item  24 -- Length:   40  Offset: 7240 (0x1c48)  Flags: NORMAL
  Block Id: 24  linp Index: 8194  Size: 40
  Has Nulls: 0  Has Varwidths: 0

  1c48: 00001800 02202820 eb040000 6e2f0000  ..... ( ....n/..
  1c58: 0f000000 00000000 00000000 83000000  ................
  1c68: 01002700 00000000                    ..'.....        

 Item  25 -- Length:   40  Offset: 7200 (0x1c20)  Flags: NORMAL
  Block Id: 24  linp Index: 8194  Size: 40
  Has Nulls: 0  Has Varwidths: 0

  1c20: 00001800 02202820 eb040000 6e2f0000  ..... ( ....n/..
  1c30: 10000000 00000000 00000000 84000000  ................
  1c40: 01002800 00000000                    ..(.....        

 Item  26 -- Length:   40  Offset: 7160 (0x1bf8)  Flags: NORMAL
  Block Id: 24  linp Index: 8194  Size: 40
  Has Nulls: 0  Has Varwidths: 0

  1bf8: 00001800 02202820 eb040000 6e2f0000  ..... ( ....n/..
  1c08: 11000000 00000000 00000000 85000000  ................
  1c18: 01002900 00000000                    ..).....        

 Item  27 -- Length:   40  Offset: 7120 (0x1bd0)  Flags: NORMAL
  Block Id: 24  linp Index: 8194  Size: 40
  Has Nulls: 0  Has Varwidths: 0

  1bd0: 00001800 02202820 eb040000 6e2f0000  ..... ( ....n/..
  1be0: 12000000 00000000 00000000 86000000  ................
  1bf0: 01002a00 00000000                    ..*.....        

 Item  28 -- Length:   40  Offset: 7080 (0x1ba8)  Flags: NORMAL
  Block Id: 24  linp Index: 8194  Size: 40
  Has Nulls: 0  Has Varwidths: 0

  1ba8: 00001800 02202820 eb040000 6e2f0000  ..... ( ....n/..
  1bb8: 13000000 00000000 00000000 87000000  ................
  1bc8: 01002b00 00000000                    ..+.....        

 Item  29 -- Length:   40  Offset: 7040 (0x1b80)  Flags: NORMAL
  Block Id: 24  linp Index: 8194  Size: 40
  Has Nulls: 0  Has Varwidths: 0

  1b80: 00001800 02202820 eb040000 6e2f0000  ..... ( ....n/..
  1b90: 14000000 00000000 00000000 88000000  ................
  1ba0: 01002c00 00000000                    ..,.....        

 Item  30 -- Length:   40  Offset: 7000 (0x1b58)  Flags: NORMAL
  Block Id: 24  linp Index: 8194  Size: 40
  Has Nulls: 0  Has Varwidths: 0

  1b58: 00001800 02202820 eb040000 6e2f0000  ..... ( ....n/..
  1b68: 15000000 00000000 00000100 01000000  ................
  1b78: 01002d00 00000000                    ..-.....        

 Item  31 -- Length:   40  Offset: 6960 (0x1b30)  Flags: NORMAL
  Block Id: 24  linp Index: 8194  Size: 40
  Has Nulls: 0  Has Varwidths: 0

  1b30: 00001800 02202820 eb040000 6e2f0000  ..... ( ....n/..
  1b40: 16000000 00000000 00000100 02000000  ................
  1b50: 01002e00 00000000                    ........        

 Item  32 -- Length:   40  Offset: 6920 (0x1b08)  Flags: NORMAL
  Block Id: 24  linp Index: 8194  Size: 40
  Has Nulls: 0  Has Varwidths: 0

  1b08: 00001800 02202820 eb040000 6e2f0000  ..... ( ....n/..
  1b18: 17000000 00000000 00000100 03000000  ................
  1b28: 01002f00 00000000                    ../.....        

 Item  33 -- Length:   40  Offset: 6880 (0x1ae0)  Flags: NORMAL
  Block Id: 24  linp Index: 8194  Size: 40
  Has Nulls: 0  Has Varwidths: 0

  1ae0: 00001800 02202820 eb040000 6e2f0000  ..... ( ....n/..
  1af0: 18000000 00000000 00000100 04000000  ................
  1b00: 01003000 00000000                    ..0.....        

 Item  34 -- Length:   40  Offset: 6840 (0x1ab8)  Flags: NORMAL
  Block Id: 24  linp Index: 8194  Size: 40
  Has Nulls: 0  Has Varwidths: 0

  1ab8: 00001800 02202820 eb040000 6e2f0000  ..... ( ....n/..
  1ac8: 19000000 00000000 00000100 05000000  ................
  1ad8: 01003100 00000000                    ..1.....        

 Item  35 -- Length:   40  Offset: 6800 (0x1a90)  Flags: NORMAL
  Block Id: 24  linp Index: 8194  Size: 40
  Has Nulls: 0  Has Varwidths: 0

  1a90: 00001800 02202820 eb040000 6e2f0000  ..... ( ....n/..
  1aa0: 1a000000 00000000 00000100 06000000  ................
  1ab0: 01003200 00000000                    ..2.....        

 Item  36 -- Length:   40  Offset: 6760 (0x1a68)  Flags: NORMAL
  Block Id: 24  linp Index: 8194  Size: 40
  Has Nulls: 0  Has Varwidths: 0

  1a68: 00001800 02202820 eb040000 732f0000  ..... ( ....s/..
  1a78: 00000000 00000000 00000000 6f000000  ............o...
  1a88: 00007100 00000000                    ..q.....        

 Item  37 -- Length:   40  Offset: 6720 (0x1a40)  Flags: NORMAL
  Block Id: 24  linp Index: 8194  Size: 40
  Has Nulls: 0  Has Varwidths: 0

  1a40: 00001800 02202820 eb040000 732f0000  ..... ( ....s/..
  1a50: 01000000 00000000 00000100 0a000000  ................
  1a60: 01003600 00000000                    ..6.....        

 Item  38 -- Length:   40  Offset: 6680 (0x1a18)  Flags: NORMAL
  Block Id: 24  linp Index: 8194  Size: 40
  Has Nulls: 0  Has Varwidths: 0

  1a18: 00001800 02202820 eb040000 732f0000  ..... ( ....s/..
  1a28: 02000000 00000000 00000100 0b000000  ................
  1a38: 01003700 00000000                    ..7.....        

 Item  39 -- Length:   40  Offset: 6640 (0x19f0)  Flags: NORMAL
  Block Id: 24  linp Index: 8194  Size: 40
  Has Nulls: 0  Has Varwidths: 0

  19f0: 00001800 02202820 eb040000 732f0000  ..... ( ....s/..
  1a00: 03000000 00000000 00000100 0c000000  ................
  1a10: 01003800 00000000                    ..8.....        

 Item  40 -- Length:   40  Offset: 6600 (0x19c8)  Flags: NORMAL
  Block Id: 24  linp Index: 8194  Size: 40
  Has Nulls: 0  Has Varwidths: 0

  19c8: 00001800 02202820 eb040000 732f0000  ..... ( ....s/..
  19d8: 04000000 00000000 00000100 0d000000  ................
  19e8: 01003900 00000000                    ..9.....        

 Item  41 -- Length:   40  Offset: 6560 (0x19a0)  Flags: NORMAL
  Block Id: 24  linp Index: 8194  Size: 40
  Has Nulls: 0  Has Varwidths: 0

  19a0: 00001800 02202820 eb040000 732f0000  ..... ( ....s/..
  19b0: 05000000 00000000 00000100 0e000000  ................
  19c0: 01003a00 00000000                    ..:.....        

 Item  42 -- Length:   40  Offset: 6520 (0x1978)  Flags: NORMAL
  Block Id: 24  linp Index: 8194  Size: 40
  Has Nulls: 0  Has Varwidths: 0

  1978: 00001800 02202820 eb040000 732f0000  ..... ( ....s/..
  1988: 06000000 00000000 00000100 0f000000  ................
